{
  "contractName": "NFT",
  "abi": [
    {
      "inputs": [],
      "stateMutability": "nonpayable",
      "type": "constructor"
    },
    {
      "anonymous": false,
      "inputs": [
        {
          "indexed": true,
          "internalType": "address",
          "name": "owner",
          "type": "address"
        },
        {
          "indexed": true,
          "internalType": "address",
          "name": "approved",
          "type": "address"
        },
        {
          "indexed": true,
          "internalType": "uint256",
          "name": "tokenId",
          "type": "uint256"
        }
      ],
      "name": "Approval",
      "type": "event"
    },
    {
      "anonymous": false,
      "inputs": [
        {
          "indexed": true,
          "internalType": "address",
          "name": "owner",
          "type": "address"
        },
        {
          "indexed": true,
          "internalType": "address",
          "name": "operator",
          "type": "address"
        },
        {
          "indexed": false,
          "internalType": "bool",
          "name": "approved",
          "type": "bool"
        }
      ],
      "name": "ApprovalForAll",
      "type": "event"
    },
    {
      "anonymous": false,
      "inputs": [
        {
          "indexed": false,
          "internalType": "uint256",
          "name": "_fromTokenId",
          "type": "uint256"
        },
        {
          "indexed": false,
          "internalType": "uint256",
          "name": "_toTokenId",
          "type": "uint256"
        }
      ],
      "name": "BatchMetadataUpdate",
      "type": "event"
    },
    {
      "anonymous": false,
      "inputs": [
        {
          "indexed": false,
          "internalType": "uint256",
          "name": "_tokenId",
          "type": "uint256"
        }
      ],
      "name": "MetadataUpdate",
      "type": "event"
    },
    {
      "anonymous": false,
      "inputs": [
        {
          "indexed": true,
          "internalType": "address",
          "name": "from",
          "type": "address"
        },
        {
          "indexed": true,
          "internalType": "address",
          "name": "to",
          "type": "address"
        },
        {
          "indexed": true,
          "internalType": "uint256",
          "name": "tokenId",
          "type": "uint256"
        }
      ],
      "name": "Transfer",
      "type": "event"
    },
    {
      "inputs": [
        {
          "internalType": "address",
          "name": "to",
          "type": "address"
        },
        {
          "internalType": "uint256",
          "name": "tokenId",
          "type": "uint256"
        }
      ],
      "name": "approve",
      "outputs": [],
      "stateMutability": "nonpayable",
      "type": "function"
    },
    {
      "inputs": [
        {
          "internalType": "address",
          "name": "owner",
          "type": "address"
        }
      ],
      "name": "balanceOf",
      "outputs": [
        {
          "internalType": "uint256",
          "name": "",
          "type": "uint256"
        }
      ],
      "stateMutability": "view",
      "type": "function",
      "constant": true
    },
    {
      "inputs": [
        {
          "internalType": "uint256",
          "name": "tokenId",
          "type": "uint256"
        }
      ],
      "name": "getApproved",
      "outputs": [
        {
          "internalType": "address",
          "name": "",
          "type": "address"
        }
      ],
      "stateMutability": "view",
      "type": "function",
      "constant": true
    },
    {
      "inputs": [
        {
          "internalType": "address",
          "name": "owner",
          "type": "address"
        },
        {
          "internalType": "address",
          "name": "operator",
          "type": "address"
        }
      ],
      "name": "isApprovedForAll",
      "outputs": [
        {
          "internalType": "bool",
          "name": "",
          "type": "bool"
        }
      ],
      "stateMutability": "view",
      "type": "function",
      "constant": true
    },
    {
      "inputs": [],
      "name": "name",
      "outputs": [
        {
          "internalType": "string",
          "name": "",
          "type": "string"
        }
      ],
      "stateMutability": "view",
      "type": "function",
      "constant": true
    },
    {
      "inputs": [
        {
          "internalType": "uint256",
          "name": "tokenId",
          "type": "uint256"
        }
      ],
      "name": "ownerOf",
      "outputs": [
        {
          "internalType": "address",
          "name": "",
          "type": "address"
        }
      ],
      "stateMutability": "view",
      "type": "function",
      "constant": true
    },
    {
      "inputs": [
        {
          "internalType": "address",
          "name": "from",
          "type": "address"
        },
        {
          "internalType": "address",
          "name": "to",
          "type": "address"
        },
        {
          "internalType": "uint256",
          "name": "tokenId",
          "type": "uint256"
        }
      ],
      "name": "safeTransferFrom",
      "outputs": [],
      "stateMutability": "nonpayable",
      "type": "function"
    },
    {
      "inputs": [
        {
          "internalType": "address",
          "name": "from",
          "type": "address"
        },
        {
          "internalType": "address",
          "name": "to",
          "type": "address"
        },
        {
          "internalType": "uint256",
          "name": "tokenId",
          "type": "uint256"
        },
        {
          "internalType": "bytes",
          "name": "data",
          "type": "bytes"
        }
      ],
      "name": "safeTransferFrom",
      "outputs": [],
      "stateMutability": "nonpayable",
      "type": "function"
    },
    {
      "inputs": [
        {
          "internalType": "address",
          "name": "operator",
          "type": "address"
        },
        {
          "internalType": "bool",
          "name": "approved",
          "type": "bool"
        }
      ],
      "name": "setApprovalForAll",
      "outputs": [],
      "stateMutability": "nonpayable",
      "type": "function"
    },
    {
      "inputs": [
        {
          "internalType": "bytes4",
          "name": "interfaceId",
          "type": "bytes4"
        }
      ],
      "name": "supportsInterface",
      "outputs": [
        {
          "internalType": "bool",
          "name": "",
          "type": "bool"
        }
      ],
      "stateMutability": "view",
      "type": "function",
      "constant": true
    },
    {
      "inputs": [],
      "name": "symbol",
      "outputs": [
        {
          "internalType": "string",
          "name": "",
          "type": "string"
        }
      ],
      "stateMutability": "view",
      "type": "function",
      "constant": true
    },
    {
      "inputs": [
        {
          "internalType": "uint256",
          "name": "tokenId",
          "type": "uint256"
        }
      ],
      "name": "tokenURI",
      "outputs": [
        {
          "internalType": "string",
          "name": "",
          "type": "string"
        }
      ],
      "stateMutability": "view",
      "type": "function",
      "constant": true
    },
    {
      "inputs": [
        {
          "internalType": "address",
          "name": "from",
          "type": "address"
        },
        {
          "internalType": "address",
          "name": "to",
          "type": "address"
        },
        {
          "internalType": "uint256",
          "name": "tokenId",
          "type": "uint256"
        }
      ],
      "name": "transferFrom",
      "outputs": [],
      "stateMutability": "nonpayable",
      "type": "function"
    },
    {
      "inputs": [
        {
          "internalType": "string",
          "name": "tokenURI",
          "type": "string"
        }
      ],
      "name": "createNFT",
      "outputs": [
        {
          "internalType": "uint256",
          "name": "",
          "type": "uint256"
        }
      ],
      "stateMutability": "nonpayable",
      "type": "function"
    },
    {
      "inputs": [],
      "name": "getOwnedNFTs",
      "outputs": [
        {
          "internalType": "uint256[]",
          "name": "",
          "type": "uint256[]"
        }
      ],
      "stateMutability": "view",
      "type": "function",
      "constant": true
    }
  ],
  "bytecode": "0x60806040523480156200001157600080fd5b506040518060400160405280600881526020017f47616d654974656d0000000000000000000000000000000000000000000000008152506040518060400160405280600381526020017f49544d0000000000000000000000000000000000000000000000000000000000815250816000908051906020019062000096929190620000b8565b508060019080519060200190620000af929190620000b8565b505050620001cd565b828054620000c69062000168565b90600052602060002090601f016020900481019282620000ea576000855562000136565b82601f106200010557805160ff191683800117855562000136565b8280016001018555821562000136579182015b828111156200013557825182559160200191906001019062000118565b5b50905062000145919062000149565b5090565b5b80821115620001645760008160009055506001016200014a565b5090565b600060028204905060018216806200018157607f821691505b602082108114156200019857620001976200019e565b5b50919050565b7f4e487b7100000000000000000000000000000000000000000000000000000000600052602260045260246000fd5b612bcd80620001dd6000396000f3fe608060405234801561001057600080fd5b50600436106100f55760003560e01c80636352211e11610097578063b88d4fde11610066578063b88d4fde14610284578063c87b56dd146102a0578063da2ed03e146102d0578063e985e9c514610300576100f5565b80636352211e146101ea57806370a082311461021a57806395d89b411461024a578063a22cb46514610268576100f5565b8063095ea7b3116100d3578063095ea7b31461017857806323b872dd1461019457806342842e0e146101b05780634c0eb7d9146101cc576100f5565b806301ffc9a7146100fa57806306fdde031461012a578063081812fc14610148575b600080fd5b610114600480360381019061010f9190611f87565b610330565b60405161012191906123ed565b60405180910390f35b610132610391565b60405161013f9190612408565b60405180910390f35b610162600480360381019061015d919061201e565b610423565b60405161016f9190612364565b60405180910390f35b610192600480360381019061018d9190611f4b565b610469565b005b6101ae60048036038101906101a99190611e45565b610581565b005b6101ca60048036038101906101c59190611e45565b6105e1565b005b6101d4610601565b6040516101e191906123cb565b60405180910390f35b61020460048036038101906101ff919061201e565b610696565b6040516102119190612364565b60405180910390f35b610234600480360381019061022f9190611de0565b61071d565b60405161024191906125aa565b60405180910390f35b6102526107d5565b60405161025f9190612408565b60405180910390f35b610282600480360381019061027d9190611f0f565b610867565b005b61029e60048036038101906102999190611e94565b61087d565b005b6102ba60048036038101906102b5919061201e565b6108df565b6040516102c79190612408565b60405180910390f35b6102ea60048036038101906102e59190611fd9565b6109f2565b6040516102f791906125aa565b60405180910390f35b61031a60048036038101906103159190611e09565b610ad3565b60405161032791906123ed565b60405180910390f35b6000634906490660e01b7bffffffffffffffffffffffffffffffffffffffffffffffffffffffff1916827bffffffffffffffffffffffffffffffffffffffffffffffffffffffff1916148061038a575061038982610b67565b5b9050919050565b6060600080546103a09061274d565b80601f01602080910402602001604051908101604052809291908181526020018280546103cc9061274d565b80156104195780601f106103ee57610100808354040283529160200191610419565b820191906000526020600020905b8154815290600101906020018083116103fc57829003601f168201915b5050505050905090565b600061042e82610c49565b6004600083815260200190815260200160002060009054906101000a900473ffffffffffffffffffffffffffffffffffffffff169050919050565b600061047482610696565b90508073ffffffffffffffffffffffffffffffffffffffff168373ffffffffffffffffffffffffffffffffffffffff1614156104e5576040517f08c379a00000000000000000000000000000000000000000000000000000000081526004016104dc9061256a565b60405180910390fd5b8073ffffffffffffffffffffffffffffffffffffffff16610504610c94565b73ffffffffffffffffffffffffffffffffffffffff16148061053357506105328161052d610c94565b610ad3565b5b610572576040517f08c379a00000000000000000000000000000000000000000000000000000000081526004016105699061258a565b60405180910390fd5b61057c8383610c9c565b505050565b61059261058c610c94565b82610d55565b6105d1576040517f08c379a00000000000000000000000000000000000000000000000000000000081526004016105c89061242a565b60405180910390fd5b6105dc838383610dea565b505050565b6105fc8383836040518060200160405280600081525061087d565b505050565b6060600860003373ffffffffffffffffffffffffffffffffffffffff1673ffffffffffffffffffffffffffffffffffffffff16815260200190815260200160002080548060200260200160405190810160405280929190818152602001828054801561068c57602002820191906000526020600020905b815481526020019060010190808311610678575b5050505050905090565b6000806106a2836110e4565b9050600073ffffffffffffffffffffffffffffffffffffffff168173ffffffffffffffffffffffffffffffffffffffff161415610714576040517f08c379a000000000000000000000000000000000000000000000000000000000815260040161070b9061254a565b60405180910390fd5b80915050919050565b60008073ffffffffffffffffffffffffffffffffffffffff168273ffffffffffffffffffffffffffffffffffffffff16141561078e576040517f08c379a0000000000000000000000000000000000000000000000000000000008152600401610785906124ea565b60405180910390fd5b600360008373ffffffffffffffffffffffffffffffffffffffff1673ffffffffffffffffffffffffffffffffffffffff168152602001908152602001600020549050919050565b6060600180546107e49061274d565b80601f01602080910402602001604051908101604052809291908181526020018280546108109061274d565b801561085d5780601f106108325761010080835404028352916020019161085d565b820191906000526020600020905b81548152906001019060200180831161084057829003601f168201915b5050505050905090565b610879610872610c94565b8383611121565b5050565b61088e610888610c94565b83610d55565b6108cd576040517f08c379a00000000000000000000000000000000000000000000000000000000081526004016108c49061242a565b60405180910390fd5b6108d98484848461128e565b50505050565b60606108ea82610c49565b600060066000848152602001908152602001600020805461090a9061274d565b80601f01602080910402602001604051908101604052809291908181526020018280546109369061274d565b80156109835780601f1061095857610100808354040283529160200191610983565b820191906000526020600020905b81548152906001019060200180831161096657829003601f168201915b5050505050905060006109946112ea565b90506000815114156109aa5781925050506109ed565b6000825111156109df5780826040516020016109c7929190612340565b604051602081830303815290604052925050506109ed565b6109e884611301565b925050505b919050565b6000806109ff6007611369565b9050610a0b3382611377565b610a598185858080601f016020809104026020016040519081016040528093929190818152602001838380828437600081840152601f19601f82011690508083019250505050505050611595565b600860003373ffffffffffffffffffffffffffffffffffffffff1673ffffffffffffffffffffffffffffffffffffffff168152602001908152602001600020819080600181540180825580915050600190039060005260206000200160009091909190915055610ac96007611640565b8091505092915050565b6000600560008473ffffffffffffffffffffffffffffffffffffffff1673ffffffffffffffffffffffffffffffffffffffff16815260200190815260200160002060008373ffffffffffffffffffffffffffffffffffffffff1673ffffffffffffffffffffffffffffffffffffffff16815260200190815260200160002060009054906101000a900460ff16905092915050565b60007f80ac58cd000000000000000000000000000000000000000000000000000000007bffffffffffffffffffffffffffffffffffffffffffffffffffffffff1916827bffffffffffffffffffffffffffffffffffffffffffffffffffffffff19161480610c3257507f5b5e139f000000000000000000000000000000000000000000000000000000007bffffffffffffffffffffffffffffffffffffffffffffffffffffffff1916827bffffffffffffffffffffffffffffffffffffffffffffffffffffffff1916145b80610c425750610c4182611656565b5b9050919050565b610c52816116c0565b610c91576040517f08c379a0000000000000000000000000000000000000000000000000000000008152600401610c889061254a565b60405180910390fd5b50565b600033905090565b816004600083815260200190815260200160002060006101000a81548173ffffffffffffffffffffffffffffffffffffffff021916908373ffffffffffffffffffffffffffffffffffffffff160217905550808273ffffffffffffffffffffffffffffffffffffffff16610d0f83610696565b73ffffffffffffffffffffffffffffffffffffffff167f8c5be1e5ebec7d5bd14f71427d1e84f3dd0314c0f7b2291e5b200ac8c7c3b92560405160405180910390a45050565b600080610d6183610696565b90508073ffffffffffffffffffffffffffffffffffffffff168473ffffffffffffffffffffffffffffffffffffffff161480610da35750610da28185610ad3565b5b80610de157508373ffffffffffffffffffffffffffffffffffffffff16610dc984610423565b73ffffffffffffffffffffffffffffffffffffffff16145b91505092915050565b8273ffffffffffffffffffffffffffffffffffffffff16610e0a82610696565b73ffffffffffffffffffffffffffffffffffffffff1614610e60576040517f08c379a0000000000000000000000000000000000000000000000000000000008152600401610e579061246a565b60405180910390fd5b600073ffffffffffffffffffffffffffffffffffffffff168273ffffffffffffffffffffffffffffffffffffffff161415610ed0576040517f08c379a0000000000000000000000000000000000000000000000000000000008152600401610ec7906124aa565b60405180910390fd5b610edd8383836001611701565b8273ffffffffffffffffffffffffffffffffffffffff16610efd82610696565b73ffffffffffffffffffffffffffffffffffffffff1614610f53576040517f08c379a0000000000000000000000000000000000000000000000000000000008152600401610f4a9061246a565b60405180910390fd5b6004600082815260200190815260200160002060006101000a81549073ffffffffffffffffffffffffffffffffffffffff02191690556001600360008573ffffffffffffffffffffffffffffffffffffffff1673ffffffffffffffffffffffffffffffffffffffff168152602001908152602001600020600082825403925050819055506001600360008473ffffffffffffffffffffffffffffffffffffffff1673ffffffffffffffffffffffffffffffffffffffff16815260200190815260200160002060008282540192505081905550816002600083815260200190815260200160002060006101000a81548173ffffffffffffffffffffffffffffffffffffffff021916908373ffffffffffffffffffffffffffffffffffffffff160217905550808273ffffffffffffffffffffffffffffffffffffffff168473ffffffffffffffffffffffffffffffffffffffff167fddf252ad1be2c89b69c2b068fc378daa952ba7f163c4a11628f55a4df523b3ef60405160405180910390a46110df8383836001611707565b505050565b60006002600083815260200190815260200160002060009054906101000a900473ffffffffffffffffffffffffffffffffffffffff169050919050565b8173ffffffffffffffffffffffffffffffffffffffff168373ffffffffffffffffffffffffffffffffffffffff161415611190576040517f08c379a0000000000000000000000000000000000000000000000000000000008152600401611187906124ca565b60405180910390fd5b80600560008573ffffffffffffffffffffffffffffffffffffffff1673ffffffffffffffffffffffffffffffffffffffff16815260200190815260200160002060008473ffffffffffffffffffffffffffffffffffffffff1673ffffffffffffffffffffffffffffffffffffffff16815260200190815260200160002060006101000a81548160ff0219169083151502179055508173ffffffffffffffffffffffffffffffffffffffff168373ffffffffffffffffffffffffffffffffffffffff167f17307eab39ab6107e8899845ad3d59bd9653f200f220920489ca2b5937696c318360405161128191906123ed565b60405180910390a3505050565b611299848484610dea565b6112a58484848461170d565b6112e4576040517f08c379a00000000000000000000000000000000000000000000000000000000081526004016112db9061244a565b60405180910390fd5b50505050565b606060405180602001604052806000815250905090565b606061130c82610c49565b60006113166112ea565b905060008151116113365760405180602001604052806000815250611361565b80611340846118a4565b604051602001611351929190612340565b6040516020818303038152906040525b915050919050565b600081600001549050919050565b600073ffffffffffffffffffffffffffffffffffffffff168273ffffffffffffffffffffffffffffffffffffffff1614156113e7576040517f08c379a00000000000000000000000000000000000000000000000000000000081526004016113de9061252a565b60405180910390fd5b6113f0816116c0565b15611430576040517f08c379a00000000000000000000000000000000000000000000000000000000081526004016114279061248a565b60405180910390fd5b61143e600083836001611701565b611447816116c0565b15611487576040517f08c379a000000000000000000000000000000000000000000000000000000000815260040161147e9061248a565b60405180910390fd5b6001600360008473ffffffffffffffffffffffffffffffffffffffff1673ffffffffffffffffffffffffffffffffffffffff16815260200190815260200160002060008282540192505081905550816002600083815260200190815260200160002060006101000a81548173ffffffffffffffffffffffffffffffffffffffff021916908373ffffffffffffffffffffffffffffffffffffffff160217905550808273ffffffffffffffffffffffffffffffffffffffff16600073ffffffffffffffffffffffffffffffffffffffff167fddf252ad1be2c89b69c2b068fc378daa952ba7f163c4a11628f55a4df523b3ef60405160405180910390a4611591600083836001611707565b5050565b61159e826116c0565b6115dd576040517f08c379a00000000000000000000000000000000000000000000000000000000081526004016115d49061250a565b60405180910390fd5b80600660008481526020019081526020016000209080519060200190611604929190611c22565b507ff8e1a15aba9398e019f0b49df1a4fde98ee17ae345cb5f6b5e2c27f5033e8ce78260405161163491906125aa565b60405180910390a15050565b6001816000016000828254019250508190555050565b60007f01ffc9a7000000000000000000000000000000000000000000000000000000007bffffffffffffffffffffffffffffffffffffffffffffffffffffffff1916827bffffffffffffffffffffffffffffffffffffffffffffffffffffffff1916149050919050565b60008073ffffffffffffffffffffffffffffffffffffffff166116e2836110e4565b73ffffffffffffffffffffffffffffffffffffffff1614159050919050565b50505050565b50505050565b600061172e8473ffffffffffffffffffffffffffffffffffffffff166119c8565b15611897578373ffffffffffffffffffffffffffffffffffffffff1663150b7a02611757610c94565b8786866040518563ffffffff1660e01b8152600401611779949392919061237f565b602060405180830381600087803b15801561179357600080fd5b505af19250505080156117c457506040513d601f19601f820116820180604052508101906117c19190611fb0565b60015b611847573d80600081146117f4576040519150601f19603f3d011682016040523d82523d6000602084013e6117f9565b606091505b5060008151141561183f576040517f08c379a00000000000000000000000000000000000000000000000000000000081526004016118369061244a565b60405180910390fd5b805181602001fd5b63150b7a0260e01b7bffffffffffffffffffffffffffffffffffffffffffffffffffffffff1916817bffffffffffffffffffffffffffffffffffffffffffffffffffffffff19161491505061189c565b600190505b949350505050565b6060600060016118b3846119eb565b01905060008167ffffffffffffffff8111156118f8577f4e487b7100000000000000000000000000000000000000000000000000000000600052604160045260246000fd5b6040519080825280601f01601f19166020018201604052801561192a5781602001600182028036833780820191505090505b509050600082602001820190505b6001156119bd578080600190039150507f3031323334353637383961626364656600000000000000000000000000000000600a86061a8153600a85816119a7577f4e487b7100000000000000000000000000000000000000000000000000000000600052601260045260246000fd5b04945060008514156119b8576119bd565b611938565b819350505050919050565b6000808273ffffffffffffffffffffffffffffffffffffffff163b119050919050565b600080600090507a184f03e93ff9f4daa797ed6e38ed64bf6a1f0100000000000000008310611a6f577a184f03e93ff9f4daa797ed6e38ed64bf6a1f0100000000000000008381611a65577f4e487b7100000000000000000000000000000000000000000000000000000000600052601260045260246000fd5b0492506040810190505b6d04ee2d6d415b85acef81000000008310611ad2576d04ee2d6d415b85acef81000000008381611ac8577f4e487b7100000000000000000000000000000000000000000000000000000000600052601260045260246000fd5b0492506020810190505b662386f26fc100008310611b2757662386f26fc100008381611b1d577f4e487b7100000000000000000000000000000000000000000000000000000000600052601260045260246000fd5b0492506010810190505b6305f5e1008310611b76576305f5e1008381611b6c577f4e487b7100000000000000000000000000000000000000000000000000000000600052601260045260246000fd5b0492506008810190505b6127108310611bc1576127108381611bb7577f4e487b7100000000000000000000000000000000000000000000000000000000600052601260045260246000fd5b0492506004810190505b60648310611c0a5760648381611c00577f4e487b7100000000000000000000000000000000000000000000000000000000600052601260045260246000fd5b0492506002810190505b600a8310611c19576001810190505b80915050919050565b828054611c2e9061274d565b90600052602060002090601f016020900481019282611c505760008555611c97565b82601f10611c6957805160ff1916838001178555611c97565b82800160010185558215611c97579182015b82811115611c96578251825591602001919060010190611c7b565b5b509050611ca49190611ca8565b5090565b5b80821115611cc1576000816000905550600101611ca9565b5090565b6000611cd8611cd3846125ea565b6125c5565b905082815260208101848484011115611cf057600080fd5b611cfb84828561270b565b509392505050565b600081359050611d1281612b3b565b92915050565b600081359050611d2781612b52565b92915050565b600081359050611d3c81612b69565b92915050565b600081519050611d5181612b69565b92915050565b600082601f830112611d6857600080fd5b8135611d78848260208601611cc5565b91505092915050565b60008083601f840112611d9357600080fd5b8235905067ffffffffffffffff811115611dac57600080fd5b602083019150836001820283011115611dc457600080fd5b9250929050565b600081359050611dda81612b80565b92915050565b600060208284031215611df257600080fd5b6000611e0084828501611d03565b91505092915050565b60008060408385031215611e1c57600080fd5b6000611e2a85828601611d03565b9250506020611e3b85828601611d03565b9150509250929050565b600080600060608486031215611e5a57600080fd5b6000611e6886828701611d03565b9350506020611e7986828701611d03565b9250506040611e8a86828701611dcb565b9150509250925092565b60008060008060808587031215611eaa57600080fd5b6000611eb887828801611d03565b9450506020611ec987828801611d03565b9350506040611eda87828801611dcb565b925050606085013567ffffffffffffffff811115611ef757600080fd5b611f0387828801611d57565b91505092959194509250565b60008060408385031215611f2257600080fd5b6000611f3085828601611d03565b9250506020611f4185828601611d18565b9150509250929050565b60008060408385031215611f5e57600080fd5b6000611f6c85828601611d03565b9250506020611f7d85828601611dcb565b9150509250929050565b600060208284031215611f9957600080fd5b6000611fa784828501611d2d565b91505092915050565b600060208284031215611fc257600080fd5b6000611fd084828501611d42565b91505092915050565b60008060208385031215611fec57600080fd5b600083013567ffffffffffffffff81111561200657600080fd5b61201285828601611d81565b92509250509250929050565b60006020828403121561203057600080fd5b600061203e84828501611dcb565b91505092915050565b60006120538383612322565b60208301905092915050565b61206881612697565b82525050565b60006120798261262b565b6120838185612659565b935061208e8361261b565b8060005b838110156120bf5781516120a68882612047565b97506120b18361264c565b925050600181019050612092565b5085935050505092915050565b6120d5816126a9565b82525050565b60006120e682612636565b6120f0818561266a565b935061210081856020860161271a565b6121098161280e565b840191505092915050565b600061211f82612641565b612129818561267b565b935061213981856020860161271a565b6121428161280e565b840191505092915050565b600061215882612641565b612162818561268c565b935061217281856020860161271a565b80840191505092915050565b600061218b602d8361267b565b91506121968261281f565b604082019050919050565b60006121ae60328361267b565b91506121b98261286e565b604082019050919050565b60006121d160258361267b565b91506121dc826128bd565b604082019050919050565b60006121f4601c8361267b565b91506121ff8261290c565b602082019050919050565b600061221760248361267b565b915061222282612935565b604082019050919050565b600061223a60198361267b565b915061224582612984565b602082019050919050565b600061225d60298361267b565b9150612268826129ad565b604082019050919050565b6000612280602e8361267b565b915061228b826129fc565b604082019050919050565b60006122a360208361267b565b91506122ae82612a4b565b602082019050919050565b60006122c660188361267b565b91506122d182612a74565b602082019050919050565b60006122e960218361267b565b91506122f482612a9d565b604082019050919050565b600061230c603d8361267b565b915061231782612aec565b604082019050919050565b61232b81612701565b82525050565b61233a81612701565b82525050565b600061234c828561214d565b9150612358828461214d565b91508190509392505050565b6000602082019050612379600083018461205f565b92915050565b6000608082019050612394600083018761205f565b6123a1602083018661205f565b6123ae6040830185612331565b81810360608301526123c081846120db565b905095945050505050565b600060208201905081810360008301526123e5818461206e565b905092915050565b600060208201905061240260008301846120cc565b92915050565b600060208201905081810360008301526124228184612114565b905092915050565b600060208201905081810360008301526124438161217e565b9050919050565b60006020820190508181036000830152612463816121a1565b9050919050565b60006020820190508181036000830152612483816121c4565b9050919050565b600060208201905081810360008301526124a3816121e7565b9050919050565b600060208201905081810360008301526124c38161220a565b9050919050565b600060208201905081810360008301526124e38161222d565b9050919050565b6000602082019050818103600083015261250381612250565b9050919050565b6000602082019050818103600083015261252381612273565b9050919050565b6000602082019050818103600083015261254381612296565b9050919050565b60006020820190508181036000830152612563816122b9565b9050919050565b60006020820190508181036000830152612583816122dc565b9050919050565b600060208201905081810360008301526125a3816122ff565b9050919050565b60006020820190506125bf6000830184612331565b92915050565b60006125cf6125e0565b90506125db828261277f565b919050565b6000604051905090565b600067ffffffffffffffff821115612605576126046127df565b5b61260e8261280e565b9050602081019050919050565b6000819050602082019050919050565b600081519050919050565b600081519050919050565b600081519050919050565b6000602082019050919050565b600082825260208201905092915050565b600082825260208201905092915050565b600082825260208201905092915050565b600081905092915050565b60006126a2826126e1565b9050919050565b60008115159050919050565b60007fffffffff0000000000000000000000000000000000000000000000000000000082169050919050565b600073ffffffffffffffffffffffffffffffffffffffff82169050919050565b6000819050919050565b82818337600083830152505050565b60005b8381101561273857808201518184015260208101905061271d565b83811115612747576000848401525b50505050565b6000600282049050600182168061276557607f821691505b60208210811415612779576127786127b0565b5b50919050565b6127888261280e565b810181811067ffffffffffffffff821117156127a7576127a66127df565b5b80604052505050565b7f4e487b7100000000000000000000000000000000000000000000000000000000600052602260045260246000fd5b7f4e487b7100000000000000000000000000000000000000000000000000000000600052604160045260246000fd5b6000601f19601f8301169050919050565b7f4552433732313a2063616c6c6572206973206e6f7420746f6b656e206f776e6560008201527f72206f7220617070726f76656400000000000000000000000000000000000000602082015250565b7f4552433732313a207472616e7366657220746f206e6f6e20455243373231526560008201527f63656976657220696d706c656d656e7465720000000000000000000000000000602082015250565b7f4552433732313a207472616e736665722066726f6d20696e636f72726563742060008201527f6f776e6572000000000000000000000000000000000000000000000000000000602082015250565b7f4552433732313a20746f6b656e20616c7265616479206d696e74656400000000600082015250565b7f4552433732313a207472616e7366657220746f20746865207a65726f2061646460008201527f7265737300000000000000000000000000000000000000000000000000000000602082015250565b7f4552433732313a20617070726f766520746f2063616c6c657200000000000000600082015250565b7f4552433732313a2061646472657373207a65726f206973206e6f74206120766160008201527f6c6964206f776e65720000000000000000000000000000000000000000000000602082015250565b7f45524337323155524953746f726167653a2055524920736574206f66206e6f6e60008201527f6578697374656e7420746f6b656e000000000000000000000000000000000000602082015250565b7f4552433732313a206d696e7420746f20746865207a65726f2061646472657373600082015250565b7f4552433732313a20696e76616c696420746f6b656e2049440000000000000000600082015250565b7f4552433732313a20617070726f76616c20746f2063757272656e74206f776e6560008201527f7200000000000000000000000000000000000000000000000000000000000000602082015250565b7f4552433732313a20617070726f76652063616c6c6572206973206e6f7420746f60008201527f6b656e206f776e6572206f7220617070726f76656420666f7220616c6c000000602082015250565b612b4481612697565b8114612b4f57600080fd5b50565b612b5b816126a9565b8114612b6657600080fd5b50565b612b72816126b5565b8114612b7d57600080fd5b50565b612b8981612701565b8114612b9457600080fd5b5056fea2646970667358221220b446a4fe676e0b5ee6678b0f3fb7fddd41e58f4fcb05481ffefa3a2744f547b364736f6c63430008010033",
  "immutableReferences": {},
  "source": "// SPDX-License-Identifier: MIT\npragma solidity ^0.8.0;\n\nimport \"@openzeppelin/contracts/token/ERC721/extensions/ERC721URIStorage.sol\";\nimport \"@openzeppelin/contracts/utils/Counters.sol\";\n\ncontract NFT is ERC721URIStorage {\n\n    using Counters for Counters.Counter;\n    Counters.Counter private _tokenIds;\n\n    constructor() ERC721(\"GameItem\", \"ITM\") {}\n\n    // Mapping from owner to list of NFT IDs\n    mapping(address => uint256[]) internal ownedNFTs;\n\n    function createNFT(string calldata tokenURI) public returns (uint256){\n        uint256 tokenId = _tokenIds.current();\n        _mint(msg.sender, tokenId);\n        _setTokenURI(tokenId, tokenURI);\n\n        ownedNFTs[msg.sender].push(tokenId);\n\n        _tokenIds.increment();\n        return tokenId;\n    }\n\n    function getOwnedNFTs() public view returns (uint256[] memory) {\n        return ownedNFTs[msg.sender];\n    }\n}",
  "sourcePath": "/home/abir/Documents/TDoC/TDOC-blockchain/contracts/NFT.sol",
  "compiler": {
    "name": "solc",
    "version": "0.8.1+commit.df193b15.Emscripten.clang"
  },
  "schemaVersion": "3.4.16",
  "updatedAt": "2024-12-09T13:54:32.342Z",
  "networkType": "ethereum",
  "devdoc": {
    "kind": "dev",
    "methods": {
      "approve(address,uint256)": {
        "details": "See {IERC721-approve}."
      },
      "balanceOf(address)": {
        "details": "See {IERC721-balanceOf}."
      },
      "getApproved(uint256)": {
        "details": "See {IERC721-getApproved}."
      },
      "isApprovedForAll(address,address)": {
        "details": "See {IERC721-isApprovedForAll}."
      },
      "name()": {
        "details": "See {IERC721Metadata-name}."
      },
      "ownerOf(uint256)": {
        "details": "See {IERC721-ownerOf}."
      },
      "safeTransferFrom(address,address,uint256)": {
        "details": "See {IERC721-safeTransferFrom}."
      },
      "safeTransferFrom(address,address,uint256,bytes)": {
        "details": "See {IERC721-safeTransferFrom}."
      },
      "setApprovalForAll(address,bool)": {
        "details": "See {IERC721-setApprovalForAll}."
      },
      "supportsInterface(bytes4)": {
        "details": "See {IERC165-supportsInterface}"
      },
      "symbol()": {
        "details": "See {IERC721Metadata-symbol}."
      },
      "tokenURI(uint256)": {
        "details": "See {IERC721Metadata-tokenURI}."
      },
      "transferFrom(address,address,uint256)": {
        "details": "See {IERC721-transferFrom}."
      }
    },
    "version": 1
  },
  "userdoc": {
    "kind": "user",
    "methods": {},
    "version": 1
  }
}