{
  "contractName": "NFT_MarketPlace",
  "abi": [
    {
      "anonymous": false,
      "inputs": [
        {
          "indexed": true,
          "internalType": "address",
          "name": "owner",
          "type": "address"
        },
        {
          "indexed": true,
          "internalType": "address",
          "name": "approved",
          "type": "address"
        },
        {
          "indexed": true,
          "internalType": "uint256",
          "name": "tokenId",
          "type": "uint256"
        }
      ],
      "name": "Approval",
      "type": "event"
    },
    {
      "anonymous": false,
      "inputs": [
        {
          "indexed": true,
          "internalType": "address",
          "name": "owner",
          "type": "address"
        },
        {
          "indexed": true,
          "internalType": "address",
          "name": "operator",
          "type": "address"
        },
        {
          "indexed": false,
          "internalType": "bool",
          "name": "approved",
          "type": "bool"
        }
      ],
      "name": "ApprovalForAll",
      "type": "event"
    },
    {
      "anonymous": false,
      "inputs": [
        {
          "indexed": false,
          "internalType": "uint256",
          "name": "_fromTokenId",
          "type": "uint256"
        },
        {
          "indexed": false,
          "internalType": "uint256",
          "name": "_toTokenId",
          "type": "uint256"
        }
      ],
      "name": "BatchMetadataUpdate",
      "type": "event"
    },
    {
      "anonymous": false,
      "inputs": [
        {
          "indexed": false,
          "internalType": "uint256",
          "name": "_tokenId",
          "type": "uint256"
        }
      ],
      "name": "MetadataUpdate",
      "type": "event"
    },
    {
      "anonymous": false,
      "inputs": [
        {
          "indexed": true,
          "internalType": "address",
          "name": "previousOwner",
          "type": "address"
        },
        {
          "indexed": true,
          "internalType": "address",
          "name": "newOwner",
          "type": "address"
        }
      ],
      "name": "OwnershipTransferred",
      "type": "event"
    },
    {
      "anonymous": false,
      "inputs": [
        {
          "indexed": true,
          "internalType": "address",
          "name": "from",
          "type": "address"
        },
        {
          "indexed": true,
          "internalType": "address",
          "name": "to",
          "type": "address"
        },
        {
          "indexed": true,
          "internalType": "uint256",
          "name": "tokenId",
          "type": "uint256"
        }
      ],
      "name": "Transfer",
      "type": "event"
    },
    {
      "inputs": [
        {
          "internalType": "address",
          "name": "to",
          "type": "address"
        },
        {
          "internalType": "uint256",
          "name": "tokenId",
          "type": "uint256"
        }
      ],
      "name": "approve",
      "outputs": [],
      "stateMutability": "nonpayable",
      "type": "function"
    },
    {
      "inputs": [
        {
          "internalType": "address",
          "name": "owner",
          "type": "address"
        }
      ],
      "name": "balanceOf",
      "outputs": [
        {
          "internalType": "uint256",
          "name": "",
          "type": "uint256"
        }
      ],
      "stateMutability": "view",
      "type": "function",
      "constant": true
    },
    {
      "inputs": [
        {
          "internalType": "string",
          "name": "tokenURI",
          "type": "string"
        }
      ],
      "name": "createNFT",
      "outputs": [
        {
          "internalType": "uint256",
          "name": "",
          "type": "uint256"
        }
      ],
      "stateMutability": "nonpayable",
      "type": "function"
    },
    {
      "inputs": [
        {
          "internalType": "uint256",
          "name": "tokenId",
          "type": "uint256"
        }
      ],
      "name": "getApproved",
      "outputs": [
        {
          "internalType": "address",
          "name": "",
          "type": "address"
        }
      ],
      "stateMutability": "view",
      "type": "function",
      "constant": true
    },
    {
      "inputs": [],
      "name": "getOwnedNFTs",
      "outputs": [
        {
          "internalType": "uint256[]",
          "name": "",
          "type": "uint256[]"
        }
      ],
      "stateMutability": "view",
      "type": "function",
      "constant": true
    },
    {
      "inputs": [
        {
          "internalType": "address",
          "name": "owner",
          "type": "address"
        },
        {
          "internalType": "address",
          "name": "operator",
          "type": "address"
        }
      ],
      "name": "isApprovedForAll",
      "outputs": [
        {
          "internalType": "bool",
          "name": "",
          "type": "bool"
        }
      ],
      "stateMutability": "view",
      "type": "function",
      "constant": true
    },
    {
      "inputs": [],
      "name": "name",
      "outputs": [
        {
          "internalType": "string",
          "name": "",
          "type": "string"
        }
      ],
      "stateMutability": "view",
      "type": "function",
      "constant": true
    },
    {
      "inputs": [],
      "name": "owner",
      "outputs": [
        {
          "internalType": "address",
          "name": "",
          "type": "address"
        }
      ],
      "stateMutability": "view",
      "type": "function",
      "constant": true
    },
    {
      "inputs": [
        {
          "internalType": "uint256",
          "name": "tokenId",
          "type": "uint256"
        }
      ],
      "name": "ownerOf",
      "outputs": [
        {
          "internalType": "address",
          "name": "",
          "type": "address"
        }
      ],
      "stateMutability": "view",
      "type": "function",
      "constant": true
    },
    {
      "inputs": [],
      "name": "renounceOwnership",
      "outputs": [],
      "stateMutability": "nonpayable",
      "type": "function"
    },
    {
      "inputs": [
        {
          "internalType": "address",
          "name": "from",
          "type": "address"
        },
        {
          "internalType": "address",
          "name": "to",
          "type": "address"
        },
        {
          "internalType": "uint256",
          "name": "tokenId",
          "type": "uint256"
        }
      ],
      "name": "safeTransferFrom",
      "outputs": [],
      "stateMutability": "nonpayable",
      "type": "function"
    },
    {
      "inputs": [
        {
          "internalType": "address",
          "name": "from",
          "type": "address"
        },
        {
          "internalType": "address",
          "name": "to",
          "type": "address"
        },
        {
          "internalType": "uint256",
          "name": "tokenId",
          "type": "uint256"
        },
        {
          "internalType": "bytes",
          "name": "data",
          "type": "bytes"
        }
      ],
      "name": "safeTransferFrom",
      "outputs": [],
      "stateMutability": "nonpayable",
      "type": "function"
    },
    {
      "inputs": [
        {
          "internalType": "address",
          "name": "operator",
          "type": "address"
        },
        {
          "internalType": "bool",
          "name": "approved",
          "type": "bool"
        }
      ],
      "name": "setApprovalForAll",
      "outputs": [],
      "stateMutability": "nonpayable",
      "type": "function"
    },
    {
      "inputs": [
        {
          "internalType": "bytes4",
          "name": "interfaceId",
          "type": "bytes4"
        }
      ],
      "name": "supportsInterface",
      "outputs": [
        {
          "internalType": "bool",
          "name": "",
          "type": "bool"
        }
      ],
      "stateMutability": "view",
      "type": "function",
      "constant": true
    },
    {
      "inputs": [],
      "name": "symbol",
      "outputs": [
        {
          "internalType": "string",
          "name": "",
          "type": "string"
        }
      ],
      "stateMutability": "view",
      "type": "function",
      "constant": true
    },
    {
      "inputs": [
        {
          "internalType": "uint256",
          "name": "tokenId",
          "type": "uint256"
        }
      ],
      "name": "tokenURI",
      "outputs": [
        {
          "internalType": "string",
          "name": "",
          "type": "string"
        }
      ],
      "stateMutability": "view",
      "type": "function",
      "constant": true
    },
    {
      "inputs": [
        {
          "internalType": "address",
          "name": "from",
          "type": "address"
        },
        {
          "internalType": "address",
          "name": "to",
          "type": "address"
        },
        {
          "internalType": "uint256",
          "name": "tokenId",
          "type": "uint256"
        }
      ],
      "name": "transferFrom",
      "outputs": [],
      "stateMutability": "nonpayable",
      "type": "function"
    },
    {
      "inputs": [
        {
          "internalType": "address",
          "name": "newOwner",
          "type": "address"
        }
      ],
      "name": "transferOwnership",
      "outputs": [],
      "stateMutability": "nonpayable",
      "type": "function"
    },
    {
      "inputs": [
        {
          "internalType": "uint256",
          "name": "tokenID",
          "type": "uint256"
        },
        {
          "internalType": "uint256",
          "name": "price",
          "type": "uint256"
        }
      ],
      "name": "listNFT",
      "outputs": [],
      "stateMutability": "nonpayable",
      "type": "function"
    },
    {
      "inputs": [
        {
          "internalType": "uint256",
          "name": "tokenID",
          "type": "uint256"
        }
      ],
      "name": "buyNFT",
      "outputs": [],
      "stateMutability": "payable",
      "type": "function",
      "payable": true
    },
    {
      "inputs": [
        {
          "internalType": "uint256",
          "name": "tokenID",
          "type": "uint256"
        }
      ],
      "name": "cancelListing",
      "outputs": [],
      "stateMutability": "nonpayable",
      "type": "function"
    }
  ],
  "bytecode": "0x60806040523480156200001157600080fd5b506040518060400160405280600881526020017f47616d654974656d0000000000000000000000000000000000000000000000008152506040518060400160405280600381526020017f49544d00000000000000000000000000000000000000000000000000000000008152506200009e62000092620000d860201b60201c565b620000e060201b60201c565b8160019080519060200190620000b6929190620001a4565b508060029080519060200190620000cf929190620001a4565b505050620002b9565b600033905090565b60008060009054906101000a900473ffffffffffffffffffffffffffffffffffffffff169050816000806101000a81548173ffffffffffffffffffffffffffffffffffffffff021916908373ffffffffffffffffffffffffffffffffffffffff1602179055508173ffffffffffffffffffffffffffffffffffffffff168173ffffffffffffffffffffffffffffffffffffffff167f8be0079c531659141344cd1fd0a4f28419497f9722a3daafe3b4186f6b6457e060405160405180910390a35050565b828054620001b29062000254565b90600052602060002090601f016020900481019282620001d6576000855562000222565b82601f10620001f157805160ff191683800117855562000222565b8280016001018555821562000222579182015b828111156200022157825182559160200191906001019062000204565b5b50905062000231919062000235565b5090565b5b808211156200025057600081600090555060010162000236565b5090565b600060028204905060018216806200026d57607f821691505b602082108114156200028457620002836200028a565b5b50919050565b7f4e487b7100000000000000000000000000000000000000000000000000000000600052602260045260246000fd5b613a7b80620002c96000396000f3fe60806040526004361061012a5760003560e01c806370a08231116100ab578063a22cb4651161006f578063a22cb465146103cf578063b88d4fde146103f8578063c87b56dd14610421578063da2ed03e1461045e578063e985e9c51461049b578063f2fde38b146104d85761012a565b806370a08231146102fc578063715018a6146103395780638da5cb5b1461035057806394383f141461037b57806395d89b41146103a45761012a565b8063305a67a8116100f2578063305a67a81461022657806342842e0e1461024f5780634c0eb7d91461027857806351ed8288146102a35780636352211e146102bf5761012a565b806301ffc9a71461012f57806306fdde031461016c578063081812fc14610197578063095ea7b3146101d457806323b872dd146101fd575b600080fd5b34801561013b57600080fd5b5061015660048036038101906101519190612a1c565b610501565b6040516101639190612fc7565b60405180910390f35b34801561017857600080fd5b50610181610562565b60405161018e9190612fe2565b60405180910390f35b3480156101a357600080fd5b506101be60048036038101906101b99190612ab3565b6105f4565b6040516101cb9190612f07565b60405180910390f35b3480156101e057600080fd5b506101fb60048036038101906101f691906129e0565b61063a565b005b34801561020957600080fd5b50610224600480360381019061021f91906128da565b610752565b005b34801561023257600080fd5b5061024d60048036038101906102489190612ab3565b6107b2565b005b34801561025b57600080fd5b50610276600480360381019061027191906128da565b610969565b005b34801561028457600080fd5b5061028d610989565b60405161029a9190612fa5565b60405180910390f35b6102bd60048036038101906102b89190612ab3565b610a1e565b005b3480156102cb57600080fd5b506102e660048036038101906102e19190612ab3565b610c5e565b6040516102f39190612f07565b60405180910390f35b34801561030857600080fd5b50610323600480360381019061031e9190612875565b610ce5565b6040516103309190613244565b60405180910390f35b34801561034557600080fd5b5061034e610d9d565b005b34801561035c57600080fd5b50610365610db1565b6040516103729190612f07565b60405180910390f35b34801561038757600080fd5b506103a2600480360381019061039d9190612adc565b610dda565b005b3480156103b057600080fd5b506103b961102f565b6040516103c69190612fe2565b60405180910390f35b3480156103db57600080fd5b506103f660048036038101906103f191906129a4565b6110c1565b005b34801561040457600080fd5b5061041f600480360381019061041a9190612929565b6110d7565b005b34801561042d57600080fd5b5061044860048036038101906104439190612ab3565b611139565b6040516104559190612fe2565b60405180910390f35b34801561046a57600080fd5b5061048560048036038101906104809190612a6e565b61124c565b6040516104929190613244565b60405180910390f35b3480156104a757600080fd5b506104c260048036038101906104bd919061289e565b61132d565b6040516104cf9190612fc7565b60405180910390f35b3480156104e457600080fd5b506104ff60048036038101906104fa9190612875565b6113c1565b005b6000634906490660e01b7bffffffffffffffffffffffffffffffffffffffffffffffffffffffff1916827bffffffffffffffffffffffffffffffffffffffffffffffffffffffff1916148061055b575061055a82611445565b5b9050919050565b6060600180546105719061341b565b80601f016020809104026020016040519081016040528092919081815260200182805461059d9061341b565b80156105ea5780601f106105bf576101008083540402835291602001916105ea565b820191906000526020600020905b8154815290600101906020018083116105cd57829003601f168201915b5050505050905090565b60006105ff82611527565b6005600083815260200190815260200160002060009054906101000a900473ffffffffffffffffffffffffffffffffffffffff169050919050565b600061064582610c5e565b90508073ffffffffffffffffffffffffffffffffffffffff168373ffffffffffffffffffffffffffffffffffffffff1614156106b6576040517f08c379a00000000000000000000000000000000000000000000000000000000081526004016106ad906131c4565b60405180910390fd5b8073ffffffffffffffffffffffffffffffffffffffff166106d5611572565b73ffffffffffffffffffffffffffffffffffffffff1614806107045750610703816106fe611572565b61132d565b5b610743576040517f08c379a000000000000000000000000000000000000000000000000000000000815260040161073a90613204565b60405180910390fd5b61074d838361157a565b505050565b61076361075d611572565b82611633565b6107a2576040517f08c379a000000000000000000000000000000000000000000000000000000000815260040161079990613004565b60405180910390fd5b6107ad8383836116c8565b505050565b6000600a6000838152602001908152602001600020604051806040016040529081600082015481526020016001820160009054906101000a900473ffffffffffffffffffffffffffffffffffffffff1673ffffffffffffffffffffffffffffffffffffffff1673ffffffffffffffffffffffffffffffffffffffff16815250509050600081600001511161087b576040517f08c379a0000000000000000000000000000000000000000000000000000000008152600401610872906130c4565b60405180910390fd5b3373ffffffffffffffffffffffffffffffffffffffff16816020015173ffffffffffffffffffffffffffffffffffffffff16146108ed576040517f08c379a00000000000000000000000000000000000000000000000000000000081526004016108e4906131e4565b60405180910390fd5b3073ffffffffffffffffffffffffffffffffffffffff166323b872dd3033856040518463ffffffff1660e01b815260040161092a93929190612f22565b600060405180830381600087803b15801561094457600080fd5b505af1158015610958573d6000803e3d6000fd5b50505050610965826119c2565b5050565b610984838383604051806020016040528060008152506110d7565b505050565b6060600960003373ffffffffffffffffffffffffffffffffffffffff1673ffffffffffffffffffffffffffffffffffffffff168152602001908152602001600020805480602002602001604051908101604052809291908181526020018280548015610a1457602002820191906000526020600020905b815481526020019060010190808311610a00575b5050505050905090565b6000600a6000838152602001908152602001600020604051806040016040529081600082015481526020016001820160009054906101000a900473ffffffffffffffffffffffffffffffffffffffff1673ffffffffffffffffffffffffffffffffffffffff1673ffffffffffffffffffffffffffffffffffffffff168152505090506000816000015111610ae7576040517f08c379a0000000000000000000000000000000000000000000000000000000008152600401610ade906130c4565b60405180910390fd5b80600001513414610b2d576040517f08c379a0000000000000000000000000000000000000000000000000000000008152600401610b2490613224565b60405180910390fd5b3073ffffffffffffffffffffffffffffffffffffffff166323b872dd3033856040518463ffffffff1660e01b8152600401610b6a93929190612f22565b600060405180830381600087803b158015610b8457600080fd5b505af1158015610b98573d6000803e3d6000fd5b50505050600960003373ffffffffffffffffffffffffffffffffffffffff1673ffffffffffffffffffffffffffffffffffffffff168152602001908152602001600020829080600181540180825580915050600190039060005260206000200160009091909190915055610c0b826119c2565b806020015173ffffffffffffffffffffffffffffffffffffffff166108fc82600001519081150290604051600060405180830381858888f19350505050158015610c59573d6000803e3d6000fd5b505050565b600080610c6a83611a37565b9050600073ffffffffffffffffffffffffffffffffffffffff168173ffffffffffffffffffffffffffffffffffffffff161415610cdc576040517f08c379a0000000000000000000000000000000000000000000000000000000008152600401610cd3906131a4565b60405180910390fd5b80915050919050565b60008073ffffffffffffffffffffffffffffffffffffffff168273ffffffffffffffffffffffffffffffffffffffff161415610d56576040517f08c379a0000000000000000000000000000000000000000000000000000000008152600401610d4d90613124565b60405180910390fd5b600460008373ffffffffffffffffffffffffffffffffffffffff1673ffffffffffffffffffffffffffffffffffffffff168152602001908152602001600020549050919050565b610da5611a74565b610daf6000611af2565b565b60008060009054906101000a900473ffffffffffffffffffffffffffffffffffffffff16905090565b60008111610e1d576040517f08c379a0000000000000000000000000000000000000000000000000000000008152600401610e1490613024565b60405180910390fd5b3073ffffffffffffffffffffffffffffffffffffffff166323b872dd3330856040518463ffffffff1660e01b8152600401610e5a93929190612f22565b600060405180830381600087803b158015610e7457600080fd5b505af1158015610e88573d6000803e3d6000fd5b505050506000600960003373ffffffffffffffffffffffffffffffffffffffff1673ffffffffffffffffffffffffffffffffffffffff168152602001908152602001600020905060005b81805490508110156110295783828281548110610f18577f4e487b7100000000000000000000000000000000000000000000000000000000600052603260045260246000fd5b90600052602060002001541415611016578160018380549050610f3b9190613331565b81548110610f72577f4e487b7100000000000000000000000000000000000000000000000000000000600052603260045260246000fd5b9060005260206000200154828281548110610fb6577f4e487b7100000000000000000000000000000000000000000000000000000000600052603260045260246000fd5b906000526020600020018190555081805480610ffb577f4e487b7100000000000000000000000000000000000000000000000000000000600052603160045260246000fd5b60019003818190600052602060002001600090559055611029565b80806110219061347e565b915050610ed2565b50505050565b60606002805461103e9061341b565b80601f016020809104026020016040519081016040528092919081815260200182805461106a9061341b565b80156110b75780601f1061108c576101008083540402835291602001916110b7565b820191906000526020600020905b81548152906001019060200180831161109a57829003601f168201915b5050505050905090565b6110d36110cc611572565b8383611bb6565b5050565b6110e86110e2611572565b83611633565b611127576040517f08c379a000000000000000000000000000000000000000000000000000000000815260040161111e90613004565b60405180910390fd5b61113384848484611d23565b50505050565b606061114482611527565b60006007600084815260200190815260200160002080546111649061341b565b80601f01602080910402602001604051908101604052809291908181526020018280546111909061341b565b80156111dd5780601f106111b2576101008083540402835291602001916111dd565b820191906000526020600020905b8154815290600101906020018083116111c057829003601f168201915b5050505050905060006111ee611d7f565b9050600081511415611204578192505050611247565b600082511115611239578082604051602001611221929190612ee3565b60405160208183030381529060405292505050611247565b61124284611d96565b925050505b919050565b6000806112596008611dfe565b90506112653382611e0c565b6112b38185858080601f016020809104026020016040519081016040528093929190818152602001838380828437600081840152601f19601f8201169050808301925050505050505061202a565b600960003373ffffffffffffffffffffffffffffffffffffffff1673ffffffffffffffffffffffffffffffffffffffff16815260200190815260200160002081908060018154018082558091505060019003906000526020600020016000909190919091505561132360086120d5565b8091505092915050565b6000600660008473ffffffffffffffffffffffffffffffffffffffff1673ffffffffffffffffffffffffffffffffffffffff16815260200190815260200160002060008373ffffffffffffffffffffffffffffffffffffffff1673ffffffffffffffffffffffffffffffffffffffff16815260200190815260200160002060009054906101000a900460ff16905092915050565b6113c9611a74565b600073ffffffffffffffffffffffffffffffffffffffff168173ffffffffffffffffffffffffffffffffffffffff161415611439576040517f08c379a000000000000000000000000000000000000000000000000000000000815260040161143090613064565b60405180910390fd5b61144281611af2565b50565b60007f80ac58cd000000000000000000000000000000000000000000000000000000007bffffffffffffffffffffffffffffffffffffffffffffffffffffffff1916827bffffffffffffffffffffffffffffffffffffffffffffffffffffffff1916148061151057507f5b5e139f000000000000000000000000000000000000000000000000000000007bffffffffffffffffffffffffffffffffffffffffffffffffffffffff1916827bffffffffffffffffffffffffffffffffffffffffffffffffffffffff1916145b80611520575061151f826120eb565b5b9050919050565b61153081612155565b61156f576040517f08c379a0000000000000000000000000000000000000000000000000000000008152600401611566906131a4565b60405180910390fd5b50565b600033905090565b816005600083815260200190815260200160002060006101000a81548173ffffffffffffffffffffffffffffffffffffffff021916908373ffffffffffffffffffffffffffffffffffffffff160217905550808273ffffffffffffffffffffffffffffffffffffffff166115ed83610c5e565b73ffffffffffffffffffffffffffffffffffffffff167f8c5be1e5ebec7d5bd14f71427d1e84f3dd0314c0f7b2291e5b200ac8c7c3b92560405160405180910390a45050565b60008061163f83610c5e565b90508073ffffffffffffffffffffffffffffffffffffffff168473ffffffffffffffffffffffffffffffffffffffff1614806116815750611680818561132d565b5b806116bf57508373ffffffffffffffffffffffffffffffffffffffff166116a7846105f4565b73ffffffffffffffffffffffffffffffffffffffff16145b91505092915050565b8273ffffffffffffffffffffffffffffffffffffffff166116e882610c5e565b73ffffffffffffffffffffffffffffffffffffffff161461173e576040517f08c379a000000000000000000000000000000000000000000000000000000000815260040161173590613084565b60405180910390fd5b600073ffffffffffffffffffffffffffffffffffffffff168273ffffffffffffffffffffffffffffffffffffffff1614156117ae576040517f08c379a00000000000000000000000000000000000000000000000000000000081526004016117a5906130e4565b60405180910390fd5b6117bb8383836001612196565b8273ffffffffffffffffffffffffffffffffffffffff166117db82610c5e565b73ffffffffffffffffffffffffffffffffffffffff1614611831576040517f08c379a000000000000000000000000000000000000000000000000000000000815260040161182890613084565b60405180910390fd5b6005600082815260200190815260200160002060006101000a81549073ffffffffffffffffffffffffffffffffffffffff02191690556001600460008573ffffffffffffffffffffffffffffffffffffffff1673ffffffffffffffffffffffffffffffffffffffff168152602001908152602001600020600082825403925050819055506001600460008473ffffffffffffffffffffffffffffffffffffffff1673ffffffffffffffffffffffffffffffffffffffff16815260200190815260200160002060008282540192505081905550816003600083815260200190815260200160002060006101000a81548173ffffffffffffffffffffffffffffffffffffffff021916908373ffffffffffffffffffffffffffffffffffffffff160217905550808273ffffffffffffffffffffffffffffffffffffffff168473ffffffffffffffffffffffffffffffffffffffff167fddf252ad1be2c89b69c2b068fc378daa952ba7f163c4a11628f55a4df523b3ef60405160405180910390a46119bd838383600161219c565b505050565b6000600a6000838152602001908152602001600020600001819055506000600a600083815260200190815260200160002060010160006101000a81548173ffffffffffffffffffffffffffffffffffffffff021916908373ffffffffffffffffffffffffffffffffffffffff16021790555050565b60006003600083815260200190815260200160002060009054906101000a900473ffffffffffffffffffffffffffffffffffffffff169050919050565b611a7c611572565b73ffffffffffffffffffffffffffffffffffffffff16611a9a610db1565b73ffffffffffffffffffffffffffffffffffffffff1614611af0576040517f08c379a0000000000000000000000000000000000000000000000000000000008152600401611ae790613184565b60405180910390fd5b565b60008060009054906101000a900473ffffffffffffffffffffffffffffffffffffffff169050816000806101000a81548173ffffffffffffffffffffffffffffffffffffffff021916908373ffffffffffffffffffffffffffffffffffffffff1602179055508173ffffffffffffffffffffffffffffffffffffffff168173ffffffffffffffffffffffffffffffffffffffff167f8be0079c531659141344cd1fd0a4f28419497f9722a3daafe3b4186f6b6457e060405160405180910390a35050565b8173ffffffffffffffffffffffffffffffffffffffff168373ffffffffffffffffffffffffffffffffffffffff161415611c25576040517f08c379a0000000000000000000000000000000000000000000000000000000008152600401611c1c90613104565b60405180910390fd5b80600660008573ffffffffffffffffffffffffffffffffffffffff1673ffffffffffffffffffffffffffffffffffffffff16815260200190815260200160002060008473ffffffffffffffffffffffffffffffffffffffff1673ffffffffffffffffffffffffffffffffffffffff16815260200190815260200160002060006101000a81548160ff0219169083151502179055508173ffffffffffffffffffffffffffffffffffffffff168373ffffffffffffffffffffffffffffffffffffffff167f17307eab39ab6107e8899845ad3d59bd9653f200f220920489ca2b5937696c3183604051611d169190612fc7565b60405180910390a3505050565b611d2e8484846116c8565b611d3a848484846121a2565b611d79576040517f08c379a0000000000000000000000000000000000000000000000000000000008152600401611d7090613044565b60405180910390fd5b50505050565b606060405180602001604052806000815250905090565b6060611da182611527565b6000611dab611d7f565b90506000815111611dcb5760405180602001604052806000815250611df6565b80611dd584612339565b604051602001611de6929190612ee3565b6040516020818303038152906040525b915050919050565b600081600001549050919050565b600073ffffffffffffffffffffffffffffffffffffffff168273ffffffffffffffffffffffffffffffffffffffff161415611e7c576040517f08c379a0000000000000000000000000000000000000000000000000000000008152600401611e7390613164565b60405180910390fd5b611e8581612155565b15611ec5576040517f08c379a0000000000000000000000000000000000000000000000000000000008152600401611ebc906130a4565b60405180910390fd5b611ed3600083836001612196565b611edc81612155565b15611f1c576040517f08c379a0000000000000000000000000000000000000000000000000000000008152600401611f13906130a4565b60405180910390fd5b6001600460008473ffffffffffffffffffffffffffffffffffffffff1673ffffffffffffffffffffffffffffffffffffffff16815260200190815260200160002060008282540192505081905550816003600083815260200190815260200160002060006101000a81548173ffffffffffffffffffffffffffffffffffffffff021916908373ffffffffffffffffffffffffffffffffffffffff160217905550808273ffffffffffffffffffffffffffffffffffffffff16600073ffffffffffffffffffffffffffffffffffffffff167fddf252ad1be2c89b69c2b068fc378daa952ba7f163c4a11628f55a4df523b3ef60405160405180910390a461202660008383600161219c565b5050565b61203382612155565b612072576040517f08c379a000000000000000000000000000000000000000000000000000000000815260040161206990613144565b60405180910390fd5b806007600084815260200190815260200160002090805190602001906120999291906126b7565b507ff8e1a15aba9398e019f0b49df1a4fde98ee17ae345cb5f6b5e2c27f5033e8ce7826040516120c99190613244565b60405180910390a15050565b6001816000016000828254019250508190555050565b60007f01ffc9a7000000000000000000000000000000000000000000000000000000007bffffffffffffffffffffffffffffffffffffffffffffffffffffffff1916827bffffffffffffffffffffffffffffffffffffffffffffffffffffffff1916149050919050565b60008073ffffffffffffffffffffffffffffffffffffffff1661217783611a37565b73ffffffffffffffffffffffffffffffffffffffff1614159050919050565b50505050565b50505050565b60006121c38473ffffffffffffffffffffffffffffffffffffffff1661245d565b1561232c578373ffffffffffffffffffffffffffffffffffffffff1663150b7a026121ec611572565b8786866040518563ffffffff1660e01b815260040161220e9493929190612f59565b602060405180830381600087803b15801561222857600080fd5b505af192505050801561225957506040513d601f19601f820116820180604052508101906122569190612a45565b60015b6122dc573d8060008114612289576040519150601f19603f3d011682016040523d82523d6000602084013e61228e565b606091505b506000815114156122d4576040517f08c379a00000000000000000000000000000000000000000000000000000000081526004016122cb90613044565b60405180910390fd5b805181602001fd5b63150b7a0260e01b7bffffffffffffffffffffffffffffffffffffffffffffffffffffffff1916817bffffffffffffffffffffffffffffffffffffffffffffffffffffffff191614915050612331565b600190505b949350505050565b60606000600161234884612480565b01905060008167ffffffffffffffff81111561238d577f4e487b7100000000000000000000000000000000000000000000000000000000600052604160045260246000fd5b6040519080825280601f01601f1916602001820160405280156123bf5781602001600182028036833780820191505090505b509050600082602001820190505b600115612452578080600190039150507f3031323334353637383961626364656600000000000000000000000000000000600a86061a8153600a858161243c577f4e487b7100000000000000000000000000000000000000000000000000000000600052601260045260246000fd5b049450600085141561244d57612452565b6123cd565b819350505050919050565b6000808273ffffffffffffffffffffffffffffffffffffffff163b119050919050565b600080600090507a184f03e93ff9f4daa797ed6e38ed64bf6a1f0100000000000000008310612504577a184f03e93ff9f4daa797ed6e38ed64bf6a1f01000000000000000083816124fa577f4e487b7100000000000000000000000000000000000000000000000000000000600052601260045260246000fd5b0492506040810190505b6d04ee2d6d415b85acef81000000008310612567576d04ee2d6d415b85acef8100000000838161255d577f4e487b7100000000000000000000000000000000000000000000000000000000600052601260045260246000fd5b0492506020810190505b662386f26fc1000083106125bc57662386f26fc1000083816125b2577f4e487b7100000000000000000000000000000000000000000000000000000000600052601260045260246000fd5b0492506010810190505b6305f5e100831061260b576305f5e1008381612601577f4e487b7100000000000000000000000000000000000000000000000000000000600052601260045260246000fd5b0492506008810190505b612710831061265657612710838161264c577f4e487b7100000000000000000000000000000000000000000000000000000000600052601260045260246000fd5b0492506004810190505b6064831061269f5760648381612695577f4e487b7100000000000000000000000000000000000000000000000000000000600052601260045260246000fd5b0492506002810190505b600a83106126ae576001810190505b80915050919050565b8280546126c39061341b565b90600052602060002090601f0160209004810192826126e5576000855561272c565b82601f106126fe57805160ff191683800117855561272c565b8280016001018555821561272c579182015b8281111561272b578251825591602001919060010190612710565b5b509050612739919061273d565b5090565b5b8082111561275657600081600090555060010161273e565b5090565b600061276d61276884613284565b61325f565b90508281526020810184848401111561278557600080fd5b6127908482856133d9565b509392505050565b6000813590506127a7816139e9565b92915050565b6000813590506127bc81613a00565b92915050565b6000813590506127d181613a17565b92915050565b6000815190506127e681613a17565b92915050565b600082601f8301126127fd57600080fd5b813561280d84826020860161275a565b91505092915050565b60008083601f84011261282857600080fd5b8235905067ffffffffffffffff81111561284157600080fd5b60208301915083600182028301111561285957600080fd5b9250929050565b60008135905061286f81613a2e565b92915050565b60006020828403121561288757600080fd5b600061289584828501612798565b91505092915050565b600080604083850312156128b157600080fd5b60006128bf85828601612798565b92505060206128d085828601612798565b9150509250929050565b6000806000606084860312156128ef57600080fd5b60006128fd86828701612798565b935050602061290e86828701612798565b925050604061291f86828701612860565b9150509250925092565b6000806000806080858703121561293f57600080fd5b600061294d87828801612798565b945050602061295e87828801612798565b935050604061296f87828801612860565b925050606085013567ffffffffffffffff81111561298c57600080fd5b612998878288016127ec565b91505092959194509250565b600080604083850312156129b757600080fd5b60006129c585828601612798565b92505060206129d6858286016127ad565b9150509250929050565b600080604083850312156129f357600080fd5b6000612a0185828601612798565b9250506020612a1285828601612860565b9150509250929050565b600060208284031215612a2e57600080fd5b6000612a3c848285016127c2565b91505092915050565b600060208284031215612a5757600080fd5b6000612a65848285016127d7565b91505092915050565b60008060208385031215612a8157600080fd5b600083013567ffffffffffffffff811115612a9b57600080fd5b612aa785828601612816565b92509250509250929050565b600060208284031215612ac557600080fd5b6000612ad384828501612860565b91505092915050565b60008060408385031215612aef57600080fd5b6000612afd85828601612860565b9250506020612b0e85828601612860565b9150509250929050565b6000612b248383612ec5565b60208301905092915050565b612b3981613365565b82525050565b6000612b4a826132c5565b612b5481856132f3565b9350612b5f836132b5565b8060005b83811015612b90578151612b778882612b18565b9750612b82836132e6565b925050600181019050612b63565b5085935050505092915050565b612ba681613377565b82525050565b6000612bb7826132d0565b612bc18185613304565b9350612bd18185602086016133e8565b612bda81613554565b840191505092915050565b6000612bf0826132db565b612bfa8185613315565b9350612c0a8185602086016133e8565b612c1381613554565b840191505092915050565b6000612c29826132db565b612c338185613326565b9350612c438185602086016133e8565b80840191505092915050565b6000612c5c602d83613315565b9150612c6782613565565b604082019050919050565b6000612c7f602783613315565b9150612c8a826135b4565b604082019050919050565b6000612ca2603283613315565b9150612cad82613603565b604082019050919050565b6000612cc5602683613315565b9150612cd082613652565b604082019050919050565b6000612ce8602583613315565b9150612cf3826136a1565b604082019050919050565b6000612d0b601c83613315565b9150612d16826136f0565b602082019050919050565b6000612d2e602283613315565b9150612d3982613719565b604082019050919050565b6000612d51602483613315565b9150612d5c82613768565b604082019050919050565b6000612d74601983613315565b9150612d7f826137b7565b602082019050919050565b6000612d97602983613315565b9150612da2826137e0565b604082019050919050565b6000612dba602e83613315565b9150612dc58261382f565b604082019050919050565b6000612ddd602083613315565b9150612de88261387e565b602082019050919050565b6000612e00602083613315565b9150612e0b826138a7565b602082019050919050565b6000612e23601883613315565b9150612e2e826138d0565b602082019050919050565b6000612e46602183613315565b9150612e51826138f9565b604082019050919050565b6000612e69602083613315565b9150612e7482613948565b602082019050919050565b6000612e8c603d83613315565b9150612e9782613971565b604082019050919050565b6000612eaf601a83613315565b9150612eba826139c0565b602082019050919050565b612ece816133cf565b82525050565b612edd816133cf565b82525050565b6000612eef8285612c1e565b9150612efb8284612c1e565b91508190509392505050565b6000602082019050612f1c6000830184612b30565b92915050565b6000606082019050612f376000830186612b30565b612f446020830185612b30565b612f516040830184612ed4565b949350505050565b6000608082019050612f6e6000830187612b30565b612f7b6020830186612b30565b612f886040830185612ed4565b8181036060830152612f9a8184612bac565b905095945050505050565b60006020820190508181036000830152612fbf8184612b3f565b905092915050565b6000602082019050612fdc6000830184612b9d565b92915050565b60006020820190508181036000830152612ffc8184612be5565b905092915050565b6000602082019050818103600083015261301d81612c4f565b9050919050565b6000602082019050818103600083015261303d81612c72565b9050919050565b6000602082019050818103600083015261305d81612c95565b9050919050565b6000602082019050818103600083015261307d81612cb8565b9050919050565b6000602082019050818103600083015261309d81612cdb565b9050919050565b600060208201905081810360008301526130bd81612cfe565b9050919050565b600060208201905081810360008301526130dd81612d21565b9050919050565b600060208201905081810360008301526130fd81612d44565b9050919050565b6000602082019050818103600083015261311d81612d67565b9050919050565b6000602082019050818103600083015261313d81612d8a565b9050919050565b6000602082019050818103600083015261315d81612dad565b9050919050565b6000602082019050818103600083015261317d81612dd0565b9050919050565b6000602082019050818103600083015261319d81612df3565b9050919050565b600060208201905081810360008301526131bd81612e16565b9050919050565b600060208201905081810360008301526131dd81612e39565b9050919050565b600060208201905081810360008301526131fd81612e5c565b9050919050565b6000602082019050818103600083015261321d81612e7f565b9050919050565b6000602082019050818103600083015261323d81612ea2565b9050919050565b60006020820190506132596000830184612ed4565b92915050565b600061326961327a565b9050613275828261344d565b919050565b6000604051905090565b600067ffffffffffffffff82111561329f5761329e613525565b5b6132a882613554565b9050602081019050919050565b6000819050602082019050919050565b600081519050919050565b600081519050919050565b600081519050919050565b6000602082019050919050565b600082825260208201905092915050565b600082825260208201905092915050565b600082825260208201905092915050565b600081905092915050565b600061333c826133cf565b9150613347836133cf565b92508282101561335a576133596134c7565b5b828203905092915050565b6000613370826133af565b9050919050565b60008115159050919050565b60007fffffffff0000000000000000000000000000000000000000000000000000000082169050919050565b600073ffffffffffffffffffffffffffffffffffffffff82169050919050565b6000819050919050565b82818337600083830152505050565b60005b838110156134065780820151818401526020810190506133eb565b83811115613415576000848401525b50505050565b6000600282049050600182168061343357607f821691505b60208210811415613447576134466134f6565b5b50919050565b61345682613554565b810181811067ffffffffffffffff8211171561347557613474613525565b5b80604052505050565b6000613489826133cf565b91507fffffffffffffffffffffffffffffffffffffffffffffffffffffffffffffffff8214156134bc576134bb6134c7565b5b600182019050919050565b7f4e487b7100000000000000000000000000000000000000000000000000000000600052601160045260246000fd5b7f4e487b7100000000000000000000000000000000000000000000000000000000600052602260045260246000fd5b7f4e487b7100000000000000000000000000000000000000000000000000000000600052604160045260246000fd5b6000601f19601f8301169050919050565b7f4552433732313a2063616c6c6572206973206e6f7420746f6b656e206f776e6560008201527f72206f7220617070726f76656400000000000000000000000000000000000000602082015250565b7f4e46544d61726b65743a207072696365206d757374206265206772656174657260008201527f207468616e203000000000000000000000000000000000000000000000000000602082015250565b7f4552433732313a207472616e7366657220746f206e6f6e20455243373231526560008201527f63656976657220696d706c656d656e7465720000000000000000000000000000602082015250565b7f4f776e61626c653a206e6577206f776e657220697320746865207a65726f206160008201527f6464726573730000000000000000000000000000000000000000000000000000602082015250565b7f4552433732313a207472616e736665722066726f6d20696e636f72726563742060008201527f6f776e6572000000000000000000000000000000000000000000000000000000602082015250565b7f4552433732313a20746f6b656e20616c7265616479206d696e74656400000000600082015250565b7f4e46544d61726b65743a206e6674206e6f74206c697374656420666f7220736160008201527f6c65000000000000000000000000000000000000000000000000000000000000602082015250565b7f4552433732313a207472616e7366657220746f20746865207a65726f2061646460008201527f7265737300000000000000000000000000000000000000000000000000000000602082015250565b7f4552433732313a20617070726f766520746f2063616c6c657200000000000000600082015250565b7f4552433732313a2061646472657373207a65726f206973206e6f74206120766160008201527f6c6964206f776e65720000000000000000000000000000000000000000000000602082015250565b7f45524337323155524953746f726167653a2055524920736574206f66206e6f6e60008201527f6578697374656e7420746f6b656e000000000000000000000000000000000000602082015250565b7f4552433732313a206d696e7420746f20746865207a65726f2061646472657373600082015250565b7f4f776e61626c653a2063616c6c6572206973206e6f7420746865206f776e6572600082015250565b7f4552433732313a20696e76616c696420746f6b656e2049440000000000000000600082015250565b7f4552433732313a20617070726f76616c20746f2063757272656e74206f776e6560008201527f7200000000000000000000000000000000000000000000000000000000000000602082015250565b7f4e46544d61726b65743a20796f75277265206e6f74207468652073656c6c6572600082015250565b7f4552433732313a20617070726f76652063616c6c6572206973206e6f7420746f60008201527f6b656e206f776e6572206f7220617070726f76656420666f7220616c6c000000602082015250565b7f4e46544d61726b65743a20696e636f7272656374207072696365000000000000600082015250565b6139f281613365565b81146139fd57600080fd5b50565b613a0981613377565b8114613a1457600080fd5b50565b613a2081613383565b8114613a2b57600080fd5b50565b613a37816133cf565b8114613a4257600080fd5b5056fea2646970667358221220bf07d4521ba34dafbb8cb26ea5b4218e8019bb78fe2ffb9415738449aa68f76464736f6c63430008010033",
  "immutableReferences": {},
  "source": "// SPDX-License-Identifier: MIT\npragma solidity ^0.8.0;\n\nimport \"@openzeppelin/contracts/token/ERC721/extensions/ERC721URIStorage.sol\";\nimport \"@openzeppelin/contracts/access/Ownable.sol\";\nimport \"./NFT.sol\";\n\nstruct NFTListing {\n    uint256 price;\n    address seller;\n}\n\ncontract NFT_MarketPlace is Ownable, NFT {\n\n    mapping(uint256 => NFTListing) private _listings;\n\n    function listNFT(uint256 tokenID, uint256 price) public {\n        require(price > 0, \"NFTMarket: price must be greater than 0\");\n        ERC721(address(this)).transferFrom(msg.sender, address(this), tokenID);\n        // Remove NFT from the sender's list\n        uint256[] storage senderNFTs = ownedNFTs[msg.sender];\n        for (uint256 i = 0; i < senderNFTs.length; i++) {\n            if (senderNFTs[i] == tokenID) {\n                senderNFTs[i] = senderNFTs[senderNFTs.length - 1];\n                senderNFTs.pop();\n                break;\n            }\n        }\n\n    }\n\n    function buyNFT(uint256 tokenID) public payable {\n        NFTListing memory listing = _listings[tokenID];\n        require(listing.price > 0, \"NFTMarket: nft not listed for sale\");\n        require(msg.value == listing.price, \"NFTMarket: incorrect price\");\n        ERC721(address(this)).transferFrom(address(this), msg.sender, tokenID);\n        ownedNFTs[msg.sender].push(tokenID);\n        clearListing(tokenID);\n        payable(listing.seller).transfer(listing.price);\n    }\n\n    function cancelListing(uint256 tokenID) public {\n        NFTListing memory listing = _listings[tokenID];\n        require(listing.price > 0, \"NFTMarket: nft not listed for sale\");\n        require(\n            listing.seller == msg.sender,\n            \"NFTMarket: you're not the seller\"\n        );\n        ERC721(address(this)).transferFrom(address(this), msg.sender, tokenID);\n        clearListing(tokenID);\n    }\n\n    function clearListing(uint256 tokenID) private {\n        _listings[tokenID].price = 0;\n        _listings[tokenID].seller = address(0);\n    }\n}\n",
  "sourcePath": "/home/arkapravadhar/Desktop/TDOC/contracts/NFT_MarketPlace.sol",
  "compiler": {
    "name": "solc",
    "version": "0.8.1+commit.df193b15.Emscripten.clang"
  },
  "schemaVersion": "3.4.16",
  "updatedAt": "2024-12-11T05:43:02.745Z",
  "networkType": "ethereum",
  "devdoc": {
    "kind": "dev",
    "methods": {
      "approve(address,uint256)": {
        "details": "See {IERC721-approve}."
      },
      "balanceOf(address)": {
        "details": "See {IERC721-balanceOf}."
      },
      "getApproved(uint256)": {
        "details": "See {IERC721-getApproved}."
      },
      "isApprovedForAll(address,address)": {
        "details": "See {IERC721-isApprovedForAll}."
      },
      "name()": {
        "details": "See {IERC721Metadata-name}."
      },
      "owner()": {
        "details": "Returns the address of the current owner."
      },
      "ownerOf(uint256)": {
        "details": "See {IERC721-ownerOf}."
      },
      "renounceOwnership()": {
        "details": "Leaves the contract without owner. It will not be possible to call `onlyOwner` functions. Can only be called by the current owner. NOTE: Renouncing ownership will leave the contract without an owner, thereby disabling any functionality that is only available to the owner."
      },
      "safeTransferFrom(address,address,uint256)": {
        "details": "See {IERC721-safeTransferFrom}."
      },
      "safeTransferFrom(address,address,uint256,bytes)": {
        "details": "See {IERC721-safeTransferFrom}."
      },
      "setApprovalForAll(address,bool)": {
        "details": "See {IERC721-setApprovalForAll}."
      },
      "supportsInterface(bytes4)": {
        "details": "See {IERC165-supportsInterface}"
      },
      "symbol()": {
        "details": "See {IERC721Metadata-symbol}."
      },
      "tokenURI(uint256)": {
        "details": "See {IERC721Metadata-tokenURI}."
      },
      "transferFrom(address,address,uint256)": {
        "details": "See {IERC721-transferFrom}."
      },
      "transferOwnership(address)": {
        "details": "Transfers ownership of the contract to a new account (`newOwner`). Can only be called by the current owner."
      }
    },
    "version": 1
  },
  "userdoc": {
    "kind": "user",
    "methods": {},
    "version": 1
  }
}