{
  "contractName": "SpaceWars",
  "abi": [
    {
      "anonymous": false,
      "inputs": [
        {
          "indexed": true,
          "internalType": "address",
          "name": "owner",
          "type": "address"
        },
        {
          "indexed": false,
          "internalType": "string",
          "name": "name",
          "type": "string"
        }
      ],
      "name": "NewPlayer",
      "type": "event"
    },
    {
      "inputs": [
        {
          "internalType": "address",
          "name": "",
          "type": "address"
        }
      ],
      "name": "playerInfo",
      "outputs": [
        {
          "internalType": "uint256",
          "name": "",
          "type": "uint256"
        }
      ],
      "stateMutability": "view",
      "type": "function"
    },
    {
      "inputs": [
        {
          "internalType": "address",
          "name": "",
          "type": "address"
        }
      ],
      "name": "playerTokenInfo",
      "outputs": [
        {
          "internalType": "uint256",
          "name": "id",
          "type": "uint256"
        }
      ],
      "stateMutability": "view",
      "type": "function"
    },
    {
      "inputs": [
        {
          "internalType": "uint256",
          "name": "",
          "type": "uint256"
        }
      ],
      "name": "players",
      "outputs": [
        {
          "internalType": "address",
          "name": "playerAddress",
          "type": "address"
        },
        {
          "internalType": "string",
          "name": "playerName",
          "type": "string"
        }
      ],
      "stateMutability": "view",
      "type": "function"
    },
    {
      "inputs": [
        {
          "internalType": "address",
          "name": "addr",
          "type": "address"
        }
      ],
      "name": "isPlayer",
      "outputs": [
        {
          "internalType": "bool",
          "name": "",
          "type": "bool"
        }
      ],
      "stateMutability": "view",
      "type": "function"
    },
    {
      "inputs": [
        {
          "internalType": "address",
          "name": "addr",
          "type": "address"
        }
      ],
      "name": "getPlayer",
      "outputs": [
        {
          "components": [
            {
              "internalType": "address",
              "name": "playerAddress",
              "type": "address"
            },
            {
              "internalType": "string",
              "name": "playerName",
              "type": "string"
            }
          ],
          "internalType": "struct SpaceWars.Player",
          "name": "",
          "type": "tuple"
        }
      ],
      "stateMutability": "view",
      "type": "function"
    },
    {
      "inputs": [
        {
          "internalType": "string",
          "name": "_name",
          "type": "string"
        },
        {
          "internalType": "string",
          "name": "_gameTokenName",
          "type": "string"
        }
      ],
      "name": "registerPlayer",
      "outputs": [],
      "stateMutability": "nonpayable",
      "type": "function"
    },
    {
      "inputs": [
        {
          "internalType": "string",
          "name": "_name",
          "type": "string"
        }
      ],
      "name": "createRandomGameToken",
      "outputs": [],
      "stateMutability": "nonpayable",
      "type": "function"
    }
  ],
  "bytecode": "0x608060405234801561000f575f80fd5b506112b08061001d5f395ff3fe608060405234801561000f575f80fd5b506004361061007b575f3560e01c80635c12cd4b116100595780635c12cd4b1461010f578063845f433b1461013f5780639ec40aa31461015b578063f71d96cb146101775761007b565b806309c95e101461007f5780632711162e146100af5780634b114691146100df575b5f80fd5b61009960048036038101906100949190610886565b6101a8565b6040516100a691906108cb565b60405180910390f35b6100c960048036038101906100c49190610886565b610277565b6040516100d691906108fc565b60405180910390f35b6100f960048036038101906100f49190610886565b610291565b60405161010691906108fc565b60405180910390f35b61012960048036038101906101249190610886565b6102a5565b60405161013691906109e8565b60405180910390f35b61015960048036038101906101549190610b34565b610447565b005b61017560048036038101906101709190610baa565b6105e5565b005b610191600480360381019061018c9190610c1b565b61063a565b60405161019f929190610c9d565b60405180910390f35b5f805f808473ffffffffffffffffffffffffffffffffffffffff1673ffffffffffffffffffffffffffffffffffffffff1681526020019081526020015f205414158061027057505f60028054905011801561026f57508173ffffffffffffffffffffffffffffffffffffffff1660025f8154811061022957610228610ccb565b5b905f5260205f2090600202015f015f9054906101000a900473ffffffffffffffffffffffffffffffffffffffff1673ffffffffffffffffffffffffffffffffffffffff16145b5b9050919050565b6001602052805f5260405f205f91509050805f0154905081565b5f602052805f5260405f205f915090505481565b6102ad6107da565b6102b6826101a8565b6102f5576040517f08c379a00000000000000000000000000000000000000000000000000000000081526004016102ec90610d42565b60405180910390fd5b60025f808473ffffffffffffffffffffffffffffffffffffffff1673ffffffffffffffffffffffffffffffffffffffff1681526020019081526020015f20548154811061034557610344610ccb565b5b905f5260205f2090600202016040518060400160405290815f82015f9054906101000a900473ffffffffffffffffffffffffffffffffffffffff1673ffffffffffffffffffffffffffffffffffffffff1673ffffffffffffffffffffffffffffffffffffffff1681526020016001820180546103c090610d8d565b80601f01602080910402602001604051908101604052809291908181526020018280546103ec90610d8d565b80156104375780601f1061040e57610100808354040283529160200191610437565b820191905f5260205f20905b81548152906001019060200180831161041a57829003601f168201915b5050505050815250509050919050565b610450336101a8565b15610490576040517f08c379a000000000000000000000000000000000000000000000000000000000815260040161048790610e07565b60405180910390fd5b5f6002805490509050600260405180604001604052803373ffffffffffffffffffffffffffffffffffffffff16815260200185815250908060018154018082558091505060019003905f5260205f2090600202015f909190919091505f820151815f015f6101000a81548173ffffffffffffffffffffffffffffffffffffffff021916908373ffffffffffffffffffffffffffffffffffffffff16021790555060208201518160010190816105459190610fc2565b505050805f803373ffffffffffffffffffffffffffffffffffffffff1673ffffffffffffffffffffffffffffffffffffffff1681526020019081526020015f2081905550610592826105e5565b3373ffffffffffffffffffffffffffffffffffffffff167f81ef79d1cda814a60c0fc60792e648a06d9c6bae67176346d1cc8b63030bfccd846040516105d89190611091565b60405180910390a2505050565b6105ee336101a8565b61062d576040517f08c379a0000000000000000000000000000000000000000000000000000000008152600401610624906110fb565b60405180910390fd5b6106368161070e565b5050565b60028181548110610649575f80fd5b905f5260205f2090600202015f91509050805f015f9054906101000a900473ffffffffffffffffffffffffffffffffffffffff169080600101805461068d90610d8d565b80601f01602080910402602001604051908101604052809291908181526020018280546106b990610d8d565b80156107045780601f106106db57610100808354040283529160200191610704565b820191905f5260205f20905b8154815290600101906020018083116106e757829003601f168201915b5050505050905082565b610716610809565b5f6064423360405160200161072c92919061117e565b604051602081830303815290604052805190602001205f1c61074e91906111d6565b905060068161075d91906111d6565b90505f810361077557808061077190611233565b9150505b5f60405180602001604052808381525090508060015f3373ffffffffffffffffffffffffffffffffffffffff1673ffffffffffffffffffffffffffffffffffffffff1681526020019081526020015f205f820151815f01559050508092505050919050565b60405180604001604052805f73ffffffffffffffffffffffffffffffffffffffff168152602001606081525090565b60405180602001604052805f81525090565b5f604051905090565b5f80fd5b5f80fd5b5f73ffffffffffffffffffffffffffffffffffffffff82169050919050565b5f6108558261082c565b9050919050565b6108658161084b565b811461086f575f80fd5b50565b5f813590506108808161085c565b92915050565b5f6020828403121561089b5761089a610824565b5b5f6108a884828501610872565b91505092915050565b5f8115159050919050565b6108c5816108b1565b82525050565b5f6020820190506108de5f8301846108bc565b92915050565b5f819050919050565b6108f6816108e4565b82525050565b5f60208201905061090f5f8301846108ed565b92915050565b61091e8161084b565b82525050565b5f81519050919050565b5f82825260208201905092915050565b5f5b8381101561095b578082015181840152602081019050610940565b5f8484015250505050565b5f601f19601f8301169050919050565b5f61098082610924565b61098a818561092e565b935061099a81856020860161093e565b6109a381610966565b840191505092915050565b5f604083015f8301516109c35f860182610915565b50602083015184820360208601526109db8282610976565b9150508091505092915050565b5f6020820190508181035f830152610a0081846109ae565b905092915050565b5f80fd5b5f80fd5b7f4e487b71000000000000000000000000000000000000000000000000000000005f52604160045260245ffd5b610a4682610966565b810181811067ffffffffffffffff82111715610a6557610a64610a10565b5b80604052505050565b5f610a7761081b565b9050610a838282610a3d565b919050565b5f67ffffffffffffffff821115610aa257610aa1610a10565b5b610aab82610966565b9050602081019050919050565b828183375f83830152505050565b5f610ad8610ad384610a88565b610a6e565b905082815260208101848484011115610af457610af3610a0c565b5b610aff848285610ab8565b509392505050565b5f82601f830112610b1b57610b1a610a08565b5b8135610b2b848260208601610ac6565b91505092915050565b5f8060408385031215610b4a57610b49610824565b5b5f83013567ffffffffffffffff811115610b6757610b66610828565b5b610b7385828601610b07565b925050602083013567ffffffffffffffff811115610b9457610b93610828565b5b610ba085828601610b07565b9150509250929050565b5f60208284031215610bbf57610bbe610824565b5b5f82013567ffffffffffffffff811115610bdc57610bdb610828565b5b610be884828501610b07565b91505092915050565b610bfa816108e4565b8114610c04575f80fd5b50565b5f81359050610c1581610bf1565b92915050565b5f60208284031215610c3057610c2f610824565b5b5f610c3d84828501610c07565b91505092915050565b610c4f8161084b565b82525050565b5f82825260208201905092915050565b5f610c6f82610924565b610c798185610c55565b9350610c8981856020860161093e565b610c9281610966565b840191505092915050565b5f604082019050610cb05f830185610c46565b8181036020830152610cc28184610c65565b90509392505050565b7f4e487b71000000000000000000000000000000000000000000000000000000005f52603260045260245ffd5b7f506c6179657220646f65736e27742065786973742100000000000000000000005f82015250565b5f610d2c601583610c55565b9150610d3782610cf8565b602082019050919050565b5f6020820190508181035f830152610d5981610d20565b9050919050565b7f4e487b71000000000000000000000000000000000000000000000000000000005f52602260045260245ffd5b5f6002820490506001821680610da457607f821691505b602082108103610db757610db6610d60565b5b50919050565b7f506c6179657220616c72656164792072656769737465726564000000000000005f82015250565b5f610df1601983610c55565b9150610dfc82610dbd565b602082019050919050565b5f6020820190508181035f830152610e1e81610de5565b9050919050565b5f819050815f5260205f209050919050565b5f6020601f8301049050919050565b5f82821b905092915050565b5f60088302610e817fffffffffffffffffffffffffffffffffffffffffffffffffffffffffffffffff82610e46565b610e8b8683610e46565b95508019841693508086168417925050509392505050565b5f819050919050565b5f610ec6610ec1610ebc846108e4565b610ea3565b6108e4565b9050919050565b5f819050919050565b610edf83610eac565b610ef3610eeb82610ecd565b848454610e52565b825550505050565b5f90565b610f07610efb565b610f12818484610ed6565b505050565b5b81811015610f3557610f2a5f82610eff565b600181019050610f18565b5050565b601f821115610f7a57610f4b81610e25565b610f5484610e37565b81016020851015610f63578190505b610f77610f6f85610e37565b830182610f17565b50505b505050565b5f82821c905092915050565b5f610f9a5f1984600802610f7f565b1980831691505092915050565b5f610fb28383610f8b565b9150826002028217905092915050565b610fcb82610924565b67ffffffffffffffff811115610fe457610fe3610a10565b5b610fee8254610d8d565b610ff9828285610f39565b5f60209050601f83116001811461102a575f8415611018578287015190505b6110228582610fa7565b865550611089565b601f19841661103886610e25565b5f5b8281101561105f5784890151825560018201915060208501945060208101905061103a565b8683101561107c5784890151611078601f891682610f8b565b8355505b6001600288020188555050505b505050505050565b5f6020820190508181035f8301526110a98184610c65565b905092915050565b7f506c6561736520726567697374657220706c61796572206669727374000000005f82015250565b5f6110e5601c83610c55565b91506110f0826110b1565b602082019050919050565b5f6020820190508181035f830152611112816110d9565b9050919050565b5f819050919050565b61113361112e826108e4565b611119565b82525050565b5f8160601b9050919050565b5f61114f82611139565b9050919050565b5f61116082611145565b9050919050565b6111786111738261084b565b611156565b82525050565b5f6111898285611122565b6020820191506111998284611167565b6014820191508190509392505050565b7f4e487b71000000000000000000000000000000000000000000000000000000005f52601260045260245ffd5b5f6111e0826108e4565b91506111eb836108e4565b9250826111fb576111fa6111a9565b5b828206905092915050565b7f4e487b71000000000000000000000000000000000000000000000000000000005f52601160045260245ffd5b5f61123d826108e4565b91507fffffffffffffffffffffffffffffffffffffffffffffffffffffffffffffffff820361126f5761126e611206565b5b60018201905091905056fea264697066735822122033a881ee84d56077df7fd406c048291cb35f29e263f1e764e435c74ac35378c464736f6c63430008150033",
  "immutableReferences": {},
  "source": "// SPDX-License-Identifier: MIT\n\npragma solidity ^0.8.0;\n\ncontract SpaceWars {\n\n    struct GameToken {\n        uint256 id;\n    }\n\n    struct Player {\n        address playerAddress;\n        string playerName;\n    }\n\n    event NewPlayer(address indexed owner, string name);\n\n    mapping(address => uint256) public playerInfo; \n    mapping(address => GameToken) public playerTokenInfo; \n\n    Player[] public players;\n\n    function isPlayer(address addr) public view returns (bool) {\n        return playerInfo[addr] != 0 || (players.length > 0 && players[0].playerAddress == addr);\n    }\n\n    function getPlayer(address addr) public view returns (Player memory) {\n        require(isPlayer(addr), \"Player doesn't exist!\");\n        return players[playerInfo[addr]];\n    }\n\n    function _createRandomNum(uint256 _mod, address _sender) internal view returns (uint256) {\n        return uint256(keccak256(abi.encodePacked(block.timestamp, _sender))) % _mod;\n    }\n\n    function _createGameToken(string memory _name) internal returns (GameToken memory) {\n        \n        uint256 randId = uint256(keccak256(abi.encodePacked(block.timestamp, msg.sender))) % 100;\n        randId = randId % 6;\n        if (randId == 0) {\n            randId++;\n        }\n\n        GameToken memory newGameToken = GameToken(randId);\n        playerTokenInfo[msg.sender] = newGameToken; \n\n        return newGameToken;\n    }\n\n    function registerPlayer(string memory _name, string memory _gameTokenName) external {\n        require(!isPlayer(msg.sender), \"Player already registered\"); \n\n        uint256 _id = players.length;\n        players.push(Player(msg.sender, _name)); \n        playerInfo[msg.sender] = _id; \n\n        createRandomGameToken(_gameTokenName);\n\n        emit NewPlayer(msg.sender, _name); \n    }\n\n    function createRandomGameToken(string memory _name) public {\n        require(isPlayer(msg.sender), \"Please register player first\"); \n        _createGameToken(_name);\n    }\n}\n",
  "sourcePath": "/home/abir/Documents/TDoC/TDOC-blockchain/web3/contracts/SpaceWars.sol",
  "compiler": {
    "name": "solc",
    "version": "0.8.21+commit.d9974bed.Emscripten.clang"
  },
  "schemaVersion": "3.4.16",
  "updatedAt": "2024-12-07T05:29:36.736Z",
  "devdoc": {
    "kind": "dev",
    "methods": {},
    "version": 1
  },
  "userdoc": {
    "kind": "user",
    "methods": {},
    "version": 1
  }
}