{
  "contractName": "SpaceWars",
  "abi": [
    {
      "inputs": [
        {
          "internalType": "string",
          "name": "name",
          "type": "string"
        }
      ],
      "name": "registerPlayer",
      "outputs": [],
      "stateMutability": "nonpayable",
      "type": "function"
    },
    {
      "inputs": [],
      "name": "getPlayerName",
      "outputs": [
        {
          "internalType": "string",
          "name": "",
          "type": "string"
        }
      ],
      "stateMutability": "view",
      "type": "function",
      "constant": true
    }
  ],
  "bytecode": "0x608060405234801561001057600080fd5b506105c4806100206000396000f3fe608060405234801561001057600080fd5b50600436106100365760003560e01c8063a69c65971461003b578063b3446f8514610059575b600080fd5b610043610075565b6040516100509190610419565b60405180910390f35b610073600480360381019061006e9190610355565b6101d0565b005b606060008060003373ffffffffffffffffffffffffffffffffffffffff1673ffffffffffffffffffffffffffffffffffffffff16815260200190815260200160002080546100c2906104ca565b905011610104576040517f08c379a00000000000000000000000000000000000000000000000000000000081526004016100fb9061045b565b60405180910390fd5b6000803373ffffffffffffffffffffffffffffffffffffffff1673ffffffffffffffffffffffffffffffffffffffff168152602001908152602001600020805461014d906104ca565b80601f0160208091040260200160405190810160405280929190818152602001828054610179906104ca565b80156101c65780601f1061019b576101008083540402835291602001916101c6565b820191906000526020600020905b8154815290600101906020018083116101a957829003601f168201915b5050505050905090565b60008282905011610216576040517f08c379a000000000000000000000000000000000000000000000000000000000815260040161020d9061043b565b60405180910390fd5b81816000803373ffffffffffffffffffffffffffffffffffffffff1673ffffffffffffffffffffffffffffffffffffffff1681526020019081526020016000209190610263929190610268565b505050565b828054610274906104ca565b90600052602060002090601f01602090048101928261029657600085556102dd565b82601f106102af57803560ff19168380011785556102dd565b828001600101855582156102dd579182015b828111156102dc5782358255916020019190600101906102c1565b5b5090506102ea91906102ee565b5090565b5b808211156103075760008160009055506001016102ef565b5090565b60008083601f84011261031d57600080fd5b8235905067ffffffffffffffff81111561033657600080fd5b60208301915083600182028301111561034e57600080fd5b9250929050565b6000806020838503121561036857600080fd5b600083013567ffffffffffffffff81111561038257600080fd5b61038e8582860161030b565b92509250509250929050565b60006103a58261047b565b6103af8185610486565b93506103bf818560208601610497565b6103c88161052b565b840191505092915050565b60006103e0601483610486565b91506103eb8261053c565b602082019050919050565b6000610403601583610486565b915061040e82610565565b602082019050919050565b60006020820190508181036000830152610433818461039a565b905092915050565b60006020820190508181036000830152610454816103d3565b9050919050565b60006020820190508181036000830152610474816103f6565b9050919050565b600081519050919050565b600082825260208201905092915050565b60005b838110156104b557808201518184015260208101905061049a565b838111156104c4576000848401525b50505050565b600060028204905060018216806104e257607f821691505b602082108114156104f6576104f56104fc565b5b50919050565b7f4e487b7100000000000000000000000000000000000000000000000000000000600052602260045260246000fd5b6000601f19601f8301169050919050565b7f4e616d652063616e6e6f7420626520656d707479000000000000000000000000600082015250565b7f506c61796572206e6f742072656769737465726564000000000000000000000060008201525056fea26469706673582212202ebb7daa79e131b83bc9e68a73bfd05fe960a4f8b19a31e50e9c80b147343dbf64736f6c63430008010033",
  "immutableReferences": {},
  "source": "// SPDX-License-Identifier: MIT\n\npragma solidity ^0.8.0;\n\ncontract SpaceWars {\n    mapping(address => string) playerName;\n\n    function registerPlayer(string calldata name) public {\n        require(bytes(name).length > 0, \"Name cannot be empty\");\n        playerName[msg.sender] = name;\n    }\n\n    function getPlayerName() public view returns(string memory) {\n        require(bytes(playerName[msg.sender]).length > 0, \"Player not registered\");\n        return playerName[msg.sender];\n    }\n}\n",
  "sourcePath": "/home/arkapravadhar/Desktop/TDOC/contracts/SpaceWars.sol",
  "compiler": {
    "name": "solc",
    "version": "0.8.1+commit.df193b15.Emscripten.clang"
  },
  "schemaVersion": "3.4.16",
  "updatedAt": "2024-12-11T05:43:02.847Z",
  "networkType": "ethereum",
  "devdoc": {
    "kind": "dev",
    "methods": {},
    "version": 1
  },
  "userdoc": {
    "kind": "user",
    "methods": {},
    "version": 1
  }
}