{
  "contractName": "NFT",
  "abi": [
    {
      "inputs": [],
      "stateMutability": "nonpayable",
      "type": "constructor"
    },
    {
      "anonymous": false,
      "inputs": [
        {
          "indexed": true,
          "internalType": "address",
          "name": "owner",
          "type": "address"
        },
        {
          "indexed": true,
          "internalType": "address",
          "name": "approved",
          "type": "address"
        },
        {
          "indexed": true,
          "internalType": "uint256",
          "name": "tokenId",
          "type": "uint256"
        }
      ],
      "name": "Approval",
      "type": "event"
    },
    {
      "anonymous": false,
      "inputs": [
        {
          "indexed": true,
          "internalType": "address",
          "name": "owner",
          "type": "address"
        },
        {
          "indexed": true,
          "internalType": "address",
          "name": "operator",
          "type": "address"
        },
        {
          "indexed": false,
          "internalType": "bool",
          "name": "approved",
          "type": "bool"
        }
      ],
      "name": "ApprovalForAll",
      "type": "event"
    },
    {
      "anonymous": false,
      "inputs": [
        {
          "indexed": false,
          "internalType": "uint256",
          "name": "_fromTokenId",
          "type": "uint256"
        },
        {
          "indexed": false,
          "internalType": "uint256",
          "name": "_toTokenId",
          "type": "uint256"
        }
      ],
      "name": "BatchMetadataUpdate",
      "type": "event"
    },
    {
      "anonymous": false,
      "inputs": [
        {
          "indexed": false,
          "internalType": "uint256",
          "name": "_tokenId",
          "type": "uint256"
        }
      ],
      "name": "MetadataUpdate",
      "type": "event"
    },
    {
      "anonymous": false,
      "inputs": [
        {
          "indexed": true,
          "internalType": "address",
          "name": "from",
          "type": "address"
        },
        {
          "indexed": true,
          "internalType": "address",
          "name": "to",
          "type": "address"
        },
        {
          "indexed": true,
          "internalType": "uint256",
          "name": "tokenId",
          "type": "uint256"
        }
      ],
      "name": "Transfer",
      "type": "event"
    },
    {
      "inputs": [
        {
          "internalType": "address",
          "name": "to",
          "type": "address"
        },
        {
          "internalType": "uint256",
          "name": "tokenId",
          "type": "uint256"
        }
      ],
      "name": "approve",
      "outputs": [],
      "stateMutability": "nonpayable",
      "type": "function"
    },
    {
      "inputs": [
        {
          "internalType": "address",
          "name": "owner",
          "type": "address"
        }
      ],
      "name": "balanceOf",
      "outputs": [
        {
          "internalType": "uint256",
          "name": "",
          "type": "uint256"
        }
      ],
      "stateMutability": "view",
      "type": "function",
      "constant": true
    },
    {
      "inputs": [
        {
          "internalType": "uint256",
          "name": "tokenId",
          "type": "uint256"
        }
      ],
      "name": "getApproved",
      "outputs": [
        {
          "internalType": "address",
          "name": "",
          "type": "address"
        }
      ],
      "stateMutability": "view",
      "type": "function",
      "constant": true
    },
    {
      "inputs": [
        {
          "internalType": "address",
          "name": "owner",
          "type": "address"
        },
        {
          "internalType": "address",
          "name": "operator",
          "type": "address"
        }
      ],
      "name": "isApprovedForAll",
      "outputs": [
        {
          "internalType": "bool",
          "name": "",
          "type": "bool"
        }
      ],
      "stateMutability": "view",
      "type": "function",
      "constant": true
    },
    {
      "inputs": [],
      "name": "name",
      "outputs": [
        {
          "internalType": "string",
          "name": "",
          "type": "string"
        }
      ],
      "stateMutability": "view",
      "type": "function",
      "constant": true
    },
    {
      "inputs": [
        {
          "internalType": "uint256",
          "name": "tokenId",
          "type": "uint256"
        }
      ],
      "name": "ownerOf",
      "outputs": [
        {
          "internalType": "address",
          "name": "",
          "type": "address"
        }
      ],
      "stateMutability": "view",
      "type": "function",
      "constant": true
    },
    {
      "inputs": [
        {
          "internalType": "address",
          "name": "from",
          "type": "address"
        },
        {
          "internalType": "address",
          "name": "to",
          "type": "address"
        },
        {
          "internalType": "uint256",
          "name": "tokenId",
          "type": "uint256"
        }
      ],
      "name": "safeTransferFrom",
      "outputs": [],
      "stateMutability": "nonpayable",
      "type": "function"
    },
    {
      "inputs": [
        {
          "internalType": "address",
          "name": "from",
          "type": "address"
        },
        {
          "internalType": "address",
          "name": "to",
          "type": "address"
        },
        {
          "internalType": "uint256",
          "name": "tokenId",
          "type": "uint256"
        },
        {
          "internalType": "bytes",
          "name": "data",
          "type": "bytes"
        }
      ],
      "name": "safeTransferFrom",
      "outputs": [],
      "stateMutability": "nonpayable",
      "type": "function"
    },
    {
      "inputs": [
        {
          "internalType": "address",
          "name": "operator",
          "type": "address"
        },
        {
          "internalType": "bool",
          "name": "approved",
          "type": "bool"
        }
      ],
      "name": "setApprovalForAll",
      "outputs": [],
      "stateMutability": "nonpayable",
      "type": "function"
    },
    {
      "inputs": [
        {
          "internalType": "bytes4",
          "name": "interfaceId",
          "type": "bytes4"
        }
      ],
      "name": "supportsInterface",
      "outputs": [
        {
          "internalType": "bool",
          "name": "",
          "type": "bool"
        }
      ],
      "stateMutability": "view",
      "type": "function",
      "constant": true
    },
    {
      "inputs": [],
      "name": "symbol",
      "outputs": [
        {
          "internalType": "string",
          "name": "",
          "type": "string"
        }
      ],
      "stateMutability": "view",
      "type": "function",
      "constant": true
    },
    {
      "inputs": [
        {
          "internalType": "uint256",
          "name": "tokenId",
          "type": "uint256"
        }
      ],
      "name": "tokenURI",
      "outputs": [
        {
          "internalType": "string",
          "name": "",
          "type": "string"
        }
      ],
      "stateMutability": "view",
      "type": "function",
      "constant": true
    },
    {
      "inputs": [
        {
          "internalType": "address",
          "name": "from",
          "type": "address"
        },
        {
          "internalType": "address",
          "name": "to",
          "type": "address"
        },
        {
          "internalType": "uint256",
          "name": "tokenId",
          "type": "uint256"
        }
      ],
      "name": "transferFrom",
      "outputs": [],
      "stateMutability": "nonpayable",
      "type": "function"
    },
    {
      "inputs": [
        {
          "internalType": "string",
          "name": "tokenURI",
          "type": "string"
        }
      ],
      "name": "createNFT",
      "outputs": [
        {
          "internalType": "uint256",
          "name": "",
          "type": "uint256"
        }
      ],
      "stateMutability": "nonpayable",
      "type": "function"
    }
  ],
  "bytecode": "0x60806040523480156200001157600080fd5b506040518060400160405280600881526020017f47616d654974656d0000000000000000000000000000000000000000000000008152506040518060400160405280600381526020017f49544d0000000000000000000000000000000000000000000000000000000000815250816000908051906020019062000096929190620000b8565b508060019080519060200190620000af929190620000b8565b505050620001cd565b828054620000c69062000168565b90600052602060002090601f016020900481019282620000ea576000855562000136565b82601f106200010557805160ff191683800117855562000136565b8280016001018555821562000136579182015b828111156200013557825182559160200191906001019062000118565b5b50905062000145919062000149565b5090565b5b80821115620001645760008160009055506001016200014a565b5090565b600060028204905060018216806200018157607f821691505b602082108114156200019857620001976200019e565b5b50919050565b7f4e487b7100000000000000000000000000000000000000000000000000000000600052602260045260246000fd5b6129c980620001dd6000396000f3fe608060405234801561001057600080fd5b50600436106100ea5760003560e01c806370a082311161008c578063b88d4fde11610066578063b88d4fde1461025b578063c87b56dd14610277578063da2ed03e146102a7578063e985e9c5146102d7576100ea565b806370a08231146101f157806395d89b4114610221578063a22cb4651461023f576100ea565b8063095ea7b3116100c8578063095ea7b31461016d57806323b872dd1461018957806342842e0e146101a55780636352211e146101c1576100ea565b806301ffc9a7146100ef57806306fdde031461011f578063081812fc1461013d575b600080fd5b61010960048036038101906101049190611e63565b610307565b6040516101169190612222565b60405180910390f35b610127610368565b604051610134919061223d565b60405180910390f35b61015760048036038101906101529190611efa565b6103fa565b60405161016491906121bb565b60405180910390f35b61018760048036038101906101829190611e27565b610440565b005b6101a3600480360381019061019e9190611d21565b610558565b005b6101bf60048036038101906101ba9190611d21565b6105b8565b005b6101db60048036038101906101d69190611efa565b6105d8565b6040516101e891906121bb565b60405180910390f35b61020b60048036038101906102069190611cbc565b61065f565b60405161021891906123df565b60405180910390f35b610229610717565b604051610236919061223d565b60405180910390f35b61025960048036038101906102549190611deb565b6107a9565b005b61027560048036038101906102709190611d70565b6107bf565b005b610291600480360381019061028c9190611efa565b610821565b60405161029e919061223d565b60405180910390f35b6102c160048036038101906102bc9190611eb5565b610934565b6040516102ce91906123df565b60405180910390f35b6102f160048036038101906102ec9190611ce5565b6109af565b6040516102fe9190612222565b60405180910390f35b6000634906490660e01b7bffffffffffffffffffffffffffffffffffffffffffffffffffffffff1916827bffffffffffffffffffffffffffffffffffffffffffffffffffffffff19161480610361575061036082610a43565b5b9050919050565b60606000805461037790612549565b80601f01602080910402602001604051908101604052809291908181526020018280546103a390612549565b80156103f05780601f106103c5576101008083540402835291602001916103f0565b820191906000526020600020905b8154815290600101906020018083116103d357829003601f168201915b5050505050905090565b600061040582610b25565b6004600083815260200190815260200160002060009054906101000a900473ffffffffffffffffffffffffffffffffffffffff169050919050565b600061044b826105d8565b90508073ffffffffffffffffffffffffffffffffffffffff168373ffffffffffffffffffffffffffffffffffffffff1614156104bc576040517f08c379a00000000000000000000000000000000000000000000000000000000081526004016104b39061239f565b60405180910390fd5b8073ffffffffffffffffffffffffffffffffffffffff166104db610b70565b73ffffffffffffffffffffffffffffffffffffffff16148061050a575061050981610504610b70565b6109af565b5b610549576040517f08c379a0000000000000000000000000000000000000000000000000000000008152600401610540906123bf565b60405180910390fd5b6105538383610b78565b505050565b610569610563610b70565b82610c31565b6105a8576040517f08c379a000000000000000000000000000000000000000000000000000000000815260040161059f9061225f565b60405180910390fd5b6105b3838383610cc6565b505050565b6105d3838383604051806020016040528060008152506107bf565b505050565b6000806105e483610fc0565b9050600073ffffffffffffffffffffffffffffffffffffffff168173ffffffffffffffffffffffffffffffffffffffff161415610656576040517f08c379a000000000000000000000000000000000000000000000000000000000815260040161064d9061237f565b60405180910390fd5b80915050919050565b60008073ffffffffffffffffffffffffffffffffffffffff168273ffffffffffffffffffffffffffffffffffffffff1614156106d0576040517f08c379a00000000000000000000000000000000000000000000000000000000081526004016106c79061231f565b60405180910390fd5b600360008373ffffffffffffffffffffffffffffffffffffffff1673ffffffffffffffffffffffffffffffffffffffff168152602001908152602001600020549050919050565b60606001805461072690612549565b80601f016020809104026020016040519081016040528092919081815260200182805461075290612549565b801561079f5780601f106107745761010080835404028352916020019161079f565b820191906000526020600020905b81548152906001019060200180831161078257829003601f168201915b5050505050905090565b6107bb6107b4610b70565b8383610ffd565b5050565b6107d06107ca610b70565b83610c31565b61080f576040517f08c379a00000000000000000000000000000000000000000000000000000000081526004016108069061225f565b60405180910390fd5b61081b8484848461116a565b50505050565b606061082c82610b25565b600060066000848152602001908152602001600020805461084c90612549565b80601f016020809104026020016040519081016040528092919081815260200182805461087890612549565b80156108c55780601f1061089a576101008083540402835291602001916108c5565b820191906000526020600020905b8154815290600101906020018083116108a857829003601f168201915b5050505050905060006108d66111c6565b90506000815114156108ec57819250505061092f565b600082511115610921578082604051602001610909929190612197565b6040516020818303038152906040529250505061092f565b61092a846111dd565b925050505b919050565b6000806109416007611245565b905061094d3382611253565b61099b8185858080601f016020809104026020016040519081016040528093929190818152602001838380828437600081840152601f19601f82011690508083019250505050505050611471565b6109a5600761151c565b8091505092915050565b6000600560008473ffffffffffffffffffffffffffffffffffffffff1673ffffffffffffffffffffffffffffffffffffffff16815260200190815260200160002060008373ffffffffffffffffffffffffffffffffffffffff1673ffffffffffffffffffffffffffffffffffffffff16815260200190815260200160002060009054906101000a900460ff16905092915050565b60007f80ac58cd000000000000000000000000000000000000000000000000000000007bffffffffffffffffffffffffffffffffffffffffffffffffffffffff1916827bffffffffffffffffffffffffffffffffffffffffffffffffffffffff19161480610b0e57507f5b5e139f000000000000000000000000000000000000000000000000000000007bffffffffffffffffffffffffffffffffffffffffffffffffffffffff1916827bffffffffffffffffffffffffffffffffffffffffffffffffffffffff1916145b80610b1e5750610b1d82611532565b5b9050919050565b610b2e8161159c565b610b6d576040517f08c379a0000000000000000000000000000000000000000000000000000000008152600401610b649061237f565b60405180910390fd5b50565b600033905090565b816004600083815260200190815260200160002060006101000a81548173ffffffffffffffffffffffffffffffffffffffff021916908373ffffffffffffffffffffffffffffffffffffffff160217905550808273ffffffffffffffffffffffffffffffffffffffff16610beb836105d8565b73ffffffffffffffffffffffffffffffffffffffff167f8c5be1e5ebec7d5bd14f71427d1e84f3dd0314c0f7b2291e5b200ac8c7c3b92560405160405180910390a45050565b600080610c3d836105d8565b90508073ffffffffffffffffffffffffffffffffffffffff168473ffffffffffffffffffffffffffffffffffffffff161480610c7f5750610c7e81856109af565b5b80610cbd57508373ffffffffffffffffffffffffffffffffffffffff16610ca5846103fa565b73ffffffffffffffffffffffffffffffffffffffff16145b91505092915050565b8273ffffffffffffffffffffffffffffffffffffffff16610ce6826105d8565b73ffffffffffffffffffffffffffffffffffffffff1614610d3c576040517f08c379a0000000000000000000000000000000000000000000000000000000008152600401610d339061229f565b60405180910390fd5b600073ffffffffffffffffffffffffffffffffffffffff168273ffffffffffffffffffffffffffffffffffffffff161415610dac576040517f08c379a0000000000000000000000000000000000000000000000000000000008152600401610da3906122df565b60405180910390fd5b610db983838360016115dd565b8273ffffffffffffffffffffffffffffffffffffffff16610dd9826105d8565b73ffffffffffffffffffffffffffffffffffffffff1614610e2f576040517f08c379a0000000000000000000000000000000000000000000000000000000008152600401610e269061229f565b60405180910390fd5b6004600082815260200190815260200160002060006101000a81549073ffffffffffffffffffffffffffffffffffffffff02191690556001600360008573ffffffffffffffffffffffffffffffffffffffff1673ffffffffffffffffffffffffffffffffffffffff168152602001908152602001600020600082825403925050819055506001600360008473ffffffffffffffffffffffffffffffffffffffff1673ffffffffffffffffffffffffffffffffffffffff16815260200190815260200160002060008282540192505081905550816002600083815260200190815260200160002060006101000a81548173ffffffffffffffffffffffffffffffffffffffff021916908373ffffffffffffffffffffffffffffffffffffffff160217905550808273ffffffffffffffffffffffffffffffffffffffff168473ffffffffffffffffffffffffffffffffffffffff167fddf252ad1be2c89b69c2b068fc378daa952ba7f163c4a11628f55a4df523b3ef60405160405180910390a4610fbb83838360016115e3565b505050565b60006002600083815260200190815260200160002060009054906101000a900473ffffffffffffffffffffffffffffffffffffffff169050919050565b8173ffffffffffffffffffffffffffffffffffffffff168373ffffffffffffffffffffffffffffffffffffffff16141561106c576040517f08c379a0000000000000000000000000000000000000000000000000000000008152600401611063906122ff565b60405180910390fd5b80600560008573ffffffffffffffffffffffffffffffffffffffff1673ffffffffffffffffffffffffffffffffffffffff16815260200190815260200160002060008473ffffffffffffffffffffffffffffffffffffffff1673ffffffffffffffffffffffffffffffffffffffff16815260200190815260200160002060006101000a81548160ff0219169083151502179055508173ffffffffffffffffffffffffffffffffffffffff168373ffffffffffffffffffffffffffffffffffffffff167f17307eab39ab6107e8899845ad3d59bd9653f200f220920489ca2b5937696c318360405161115d9190612222565b60405180910390a3505050565b611175848484610cc6565b611181848484846115e9565b6111c0576040517f08c379a00000000000000000000000000000000000000000000000000000000081526004016111b79061227f565b60405180910390fd5b50505050565b606060405180602001604052806000815250905090565b60606111e882610b25565b60006111f26111c6565b90506000815111611212576040518060200160405280600081525061123d565b8061121c84611780565b60405160200161122d929190612197565b6040516020818303038152906040525b915050919050565b600081600001549050919050565b600073ffffffffffffffffffffffffffffffffffffffff168273ffffffffffffffffffffffffffffffffffffffff1614156112c3576040517f08c379a00000000000000000000000000000000000000000000000000000000081526004016112ba9061235f565b60405180910390fd5b6112cc8161159c565b1561130c576040517f08c379a0000000000000000000000000000000000000000000000000000000008152600401611303906122bf565b60405180910390fd5b61131a6000838360016115dd565b6113238161159c565b15611363576040517f08c379a000000000000000000000000000000000000000000000000000000000815260040161135a906122bf565b60405180910390fd5b6001600360008473ffffffffffffffffffffffffffffffffffffffff1673ffffffffffffffffffffffffffffffffffffffff16815260200190815260200160002060008282540192505081905550816002600083815260200190815260200160002060006101000a81548173ffffffffffffffffffffffffffffffffffffffff021916908373ffffffffffffffffffffffffffffffffffffffff160217905550808273ffffffffffffffffffffffffffffffffffffffff16600073ffffffffffffffffffffffffffffffffffffffff167fddf252ad1be2c89b69c2b068fc378daa952ba7f163c4a11628f55a4df523b3ef60405160405180910390a461146d6000838360016115e3565b5050565b61147a8261159c565b6114b9576040517f08c379a00000000000000000000000000000000000000000000000000000000081526004016114b09061233f565b60405180910390fd5b806006600084815260200190815260200160002090805190602001906114e0929190611afe565b507ff8e1a15aba9398e019f0b49df1a4fde98ee17ae345cb5f6b5e2c27f5033e8ce78260405161151091906123df565b60405180910390a15050565b6001816000016000828254019250508190555050565b60007f01ffc9a7000000000000000000000000000000000000000000000000000000007bffffffffffffffffffffffffffffffffffffffffffffffffffffffff1916827bffffffffffffffffffffffffffffffffffffffffffffffffffffffff1916149050919050565b60008073ffffffffffffffffffffffffffffffffffffffff166115be83610fc0565b73ffffffffffffffffffffffffffffffffffffffff1614159050919050565b50505050565b50505050565b600061160a8473ffffffffffffffffffffffffffffffffffffffff166118a4565b15611773578373ffffffffffffffffffffffffffffffffffffffff1663150b7a02611633610b70565b8786866040518563ffffffff1660e01b815260040161165594939291906121d6565b602060405180830381600087803b15801561166f57600080fd5b505af19250505080156116a057506040513d601f19601f8201168201806040525081019061169d9190611e8c565b60015b611723573d80600081146116d0576040519150601f19603f3d011682016040523d82523d6000602084013e6116d5565b606091505b5060008151141561171b576040517f08c379a00000000000000000000000000000000000000000000000000000000081526004016117129061227f565b60405180910390fd5b805181602001fd5b63150b7a0260e01b7bffffffffffffffffffffffffffffffffffffffffffffffffffffffff1916817bffffffffffffffffffffffffffffffffffffffffffffffffffffffff191614915050611778565b600190505b949350505050565b60606000600161178f846118c7565b01905060008167ffffffffffffffff8111156117d4577f4e487b7100000000000000000000000000000000000000000000000000000000600052604160045260246000fd5b6040519080825280601f01601f1916602001820160405280156118065781602001600182028036833780820191505090505b509050600082602001820190505b600115611899578080600190039150507f3031323334353637383961626364656600000000000000000000000000000000600a86061a8153600a8581611883577f4e487b7100000000000000000000000000000000000000000000000000000000600052601260045260246000fd5b049450600085141561189457611899565b611814565b819350505050919050565b6000808273ffffffffffffffffffffffffffffffffffffffff163b119050919050565b600080600090507a184f03e93ff9f4daa797ed6e38ed64bf6a1f010000000000000000831061194b577a184f03e93ff9f4daa797ed6e38ed64bf6a1f0100000000000000008381611941577f4e487b7100000000000000000000000000000000000000000000000000000000600052601260045260246000fd5b0492506040810190505b6d04ee2d6d415b85acef810000000083106119ae576d04ee2d6d415b85acef810000000083816119a4577f4e487b7100000000000000000000000000000000000000000000000000000000600052601260045260246000fd5b0492506020810190505b662386f26fc100008310611a0357662386f26fc1000083816119f9577f4e487b7100000000000000000000000000000000000000000000000000000000600052601260045260246000fd5b0492506010810190505b6305f5e1008310611a52576305f5e1008381611a48577f4e487b7100000000000000000000000000000000000000000000000000000000600052601260045260246000fd5b0492506008810190505b6127108310611a9d576127108381611a93577f4e487b7100000000000000000000000000000000000000000000000000000000600052601260045260246000fd5b0492506004810190505b60648310611ae65760648381611adc577f4e487b7100000000000000000000000000000000000000000000000000000000600052601260045260246000fd5b0492506002810190505b600a8310611af5576001810190505b80915050919050565b828054611b0a90612549565b90600052602060002090601f016020900481019282611b2c5760008555611b73565b82601f10611b4557805160ff1916838001178555611b73565b82800160010185558215611b73579182015b82811115611b72578251825591602001919060010190611b57565b5b509050611b809190611b84565b5090565b5b80821115611b9d576000816000905550600101611b85565b5090565b6000611bb4611baf8461241f565b6123fa565b905082815260208101848484011115611bcc57600080fd5b611bd7848285612507565b509392505050565b600081359050611bee81612937565b92915050565b600081359050611c038161294e565b92915050565b600081359050611c1881612965565b92915050565b600081519050611c2d81612965565b92915050565b600082601f830112611c4457600080fd5b8135611c54848260208601611ba1565b91505092915050565b60008083601f840112611c6f57600080fd5b8235905067ffffffffffffffff811115611c8857600080fd5b602083019150836001820283011115611ca057600080fd5b9250929050565b600081359050611cb68161297c565b92915050565b600060208284031215611cce57600080fd5b6000611cdc84828501611bdf565b91505092915050565b60008060408385031215611cf857600080fd5b6000611d0685828601611bdf565b9250506020611d1785828601611bdf565b9150509250929050565b600080600060608486031215611d3657600080fd5b6000611d4486828701611bdf565b9350506020611d5586828701611bdf565b9250506040611d6686828701611ca7565b9150509250925092565b60008060008060808587031215611d8657600080fd5b6000611d9487828801611bdf565b9450506020611da587828801611bdf565b9350506040611db687828801611ca7565b925050606085013567ffffffffffffffff811115611dd357600080fd5b611ddf87828801611c33565b91505092959194509250565b60008060408385031215611dfe57600080fd5b6000611e0c85828601611bdf565b9250506020611e1d85828601611bf4565b9150509250929050565b60008060408385031215611e3a57600080fd5b6000611e4885828601611bdf565b9250506020611e5985828601611ca7565b9150509250929050565b600060208284031215611e7557600080fd5b6000611e8384828501611c09565b91505092915050565b600060208284031215611e9e57600080fd5b6000611eac84828501611c1e565b91505092915050565b60008060208385031215611ec857600080fd5b600083013567ffffffffffffffff811115611ee257600080fd5b611eee85828601611c5d565b92509250509250929050565b600060208284031215611f0c57600080fd5b6000611f1a84828501611ca7565b91505092915050565b611f2c81612493565b82525050565b611f3b816124a5565b82525050565b6000611f4c82612450565b611f568185612466565b9350611f66818560208601612516565b611f6f8161260a565b840191505092915050565b6000611f858261245b565b611f8f8185612477565b9350611f9f818560208601612516565b611fa88161260a565b840191505092915050565b6000611fbe8261245b565b611fc88185612488565b9350611fd8818560208601612516565b80840191505092915050565b6000611ff1602d83612477565b9150611ffc8261261b565b604082019050919050565b6000612014603283612477565b915061201f8261266a565b604082019050919050565b6000612037602583612477565b9150612042826126b9565b604082019050919050565b600061205a601c83612477565b915061206582612708565b602082019050919050565b600061207d602483612477565b915061208882612731565b604082019050919050565b60006120a0601983612477565b91506120ab82612780565b602082019050919050565b60006120c3602983612477565b91506120ce826127a9565b604082019050919050565b60006120e6602e83612477565b91506120f1826127f8565b604082019050919050565b6000612109602083612477565b915061211482612847565b602082019050919050565b600061212c601883612477565b915061213782612870565b602082019050919050565b600061214f602183612477565b915061215a82612899565b604082019050919050565b6000612172603d83612477565b915061217d826128e8565b604082019050919050565b612191816124fd565b82525050565b60006121a38285611fb3565b91506121af8284611fb3565b91508190509392505050565b60006020820190506121d06000830184611f23565b92915050565b60006080820190506121eb6000830187611f23565b6121f86020830186611f23565b6122056040830185612188565b81810360608301526122178184611f41565b905095945050505050565b60006020820190506122376000830184611f32565b92915050565b600060208201905081810360008301526122578184611f7a565b905092915050565b6000602082019050818103600083015261227881611fe4565b9050919050565b6000602082019050818103600083015261229881612007565b9050919050565b600060208201905081810360008301526122b88161202a565b9050919050565b600060208201905081810360008301526122d88161204d565b9050919050565b600060208201905081810360008301526122f881612070565b9050919050565b6000602082019050818103600083015261231881612093565b9050919050565b60006020820190508181036000830152612338816120b6565b9050919050565b60006020820190508181036000830152612358816120d9565b9050919050565b60006020820190508181036000830152612378816120fc565b9050919050565b600060208201905081810360008301526123988161211f565b9050919050565b600060208201905081810360008301526123b881612142565b9050919050565b600060208201905081810360008301526123d881612165565b9050919050565b60006020820190506123f46000830184612188565b92915050565b6000612404612415565b9050612410828261257b565b919050565b6000604051905090565b600067ffffffffffffffff82111561243a576124396125db565b5b6124438261260a565b9050602081019050919050565b600081519050919050565b600081519050919050565b600082825260208201905092915050565b600082825260208201905092915050565b600081905092915050565b600061249e826124dd565b9050919050565b60008115159050919050565b60007fffffffff0000000000000000000000000000000000000000000000000000000082169050919050565b600073ffffffffffffffffffffffffffffffffffffffff82169050919050565b6000819050919050565b82818337600083830152505050565b60005b83811015612534578082015181840152602081019050612519565b83811115612543576000848401525b50505050565b6000600282049050600182168061256157607f821691505b60208210811415612575576125746125ac565b5b50919050565b6125848261260a565b810181811067ffffffffffffffff821117156125a3576125a26125db565b5b80604052505050565b7f4e487b7100000000000000000000000000000000000000000000000000000000600052602260045260246000fd5b7f4e487b7100000000000000000000000000000000000000000000000000000000600052604160045260246000fd5b6000601f19601f8301169050919050565b7f4552433732313a2063616c6c6572206973206e6f7420746f6b656e206f776e6560008201527f72206f7220617070726f76656400000000000000000000000000000000000000602082015250565b7f4552433732313a207472616e7366657220746f206e6f6e20455243373231526560008201527f63656976657220696d706c656d656e7465720000000000000000000000000000602082015250565b7f4552433732313a207472616e736665722066726f6d20696e636f72726563742060008201527f6f776e6572000000000000000000000000000000000000000000000000000000602082015250565b7f4552433732313a20746f6b656e20616c7265616479206d696e74656400000000600082015250565b7f4552433732313a207472616e7366657220746f20746865207a65726f2061646460008201527f7265737300000000000000000000000000000000000000000000000000000000602082015250565b7f4552433732313a20617070726f766520746f2063616c6c657200000000000000600082015250565b7f4552433732313a2061646472657373207a65726f206973206e6f74206120766160008201527f6c6964206f776e65720000000000000000000000000000000000000000000000602082015250565b7f45524337323155524953746f726167653a2055524920736574206f66206e6f6e60008201527f6578697374656e7420746f6b656e000000000000000000000000000000000000602082015250565b7f4552433732313a206d696e7420746f20746865207a65726f2061646472657373600082015250565b7f4552433732313a20696e76616c696420746f6b656e2049440000000000000000600082015250565b7f4552433732313a20617070726f76616c20746f2063757272656e74206f776e6560008201527f7200000000000000000000000000000000000000000000000000000000000000602082015250565b7f4552433732313a20617070726f76652063616c6c6572206973206e6f7420746f60008201527f6b656e206f776e6572206f7220617070726f76656420666f7220616c6c000000602082015250565b61294081612493565b811461294b57600080fd5b50565b612957816124a5565b811461296257600080fd5b50565b61296e816124b1565b811461297957600080fd5b50565b612985816124fd565b811461299057600080fd5b5056fea2646970667358221220bed488722fff14237c0a66c2604d81bd80209fb457f08566499c21b25337920264736f6c63430008010033",
  "immutableReferences": {},
  "source": "// SPDX-License-Identifier: MIT\npragma solidity ^0.8.0;\n\nimport \"@openzeppelin/contracts/token/ERC721/extensions/ERC721URIStorage.sol\";\nimport \"@openzeppelin/contracts/utils/Counters.sol\";\n\ncontract NFT is ERC721URIStorage {\n\n    using Counters for Counters.Counter;\n    Counters.Counter private _tokenIds;\n\n    constructor() ERC721(\"GameItem\", \"ITM\") {}\n\n    function createNFT(string calldata tokenURI) public returns (uint256){\n        uint256 tokenId = _tokenIds.current();\n        _mint(msg.sender, tokenId);\n        _setTokenURI(tokenId, tokenURI);\n\n        _tokenIds.increment();\n        return tokenId;\n    }\n}",
  "sourcePath": "/home/abir/Documents/TDoC/TDOC-blockchain/contracts/NFT.sol",
  "compiler": {
    "name": "solc",
    "version": "0.8.1+commit.df193b15.Emscripten.clang"
  },
  "schemaVersion": "3.4.16",
  "updatedAt": "2024-12-07T16:14:34.843Z",
  "networkType": "ethereum",
  "devdoc": {
    "kind": "dev",
    "methods": {
      "approve(address,uint256)": {
        "details": "See {IERC721-approve}."
      },
      "balanceOf(address)": {
        "details": "See {IERC721-balanceOf}."
      },
      "getApproved(uint256)": {
        "details": "See {IERC721-getApproved}."
      },
      "isApprovedForAll(address,address)": {
        "details": "See {IERC721-isApprovedForAll}."
      },
      "name()": {
        "details": "See {IERC721Metadata-name}."
      },
      "ownerOf(uint256)": {
        "details": "See {IERC721-ownerOf}."
      },
      "safeTransferFrom(address,address,uint256)": {
        "details": "See {IERC721-safeTransferFrom}."
      },
      "safeTransferFrom(address,address,uint256,bytes)": {
        "details": "See {IERC721-safeTransferFrom}."
      },
      "setApprovalForAll(address,bool)": {
        "details": "See {IERC721-setApprovalForAll}."
      },
      "supportsInterface(bytes4)": {
        "details": "See {IERC165-supportsInterface}"
      },
      "symbol()": {
        "details": "See {IERC721Metadata-symbol}."
      },
      "tokenURI(uint256)": {
        "details": "See {IERC721Metadata-tokenURI}."
      },
      "transferFrom(address,address,uint256)": {
        "details": "See {IERC721-transferFrom}."
      }
    },
    "version": 1
  },
  "userdoc": {
    "kind": "user",
    "methods": {},
    "version": 1
  }
}