{
  "contractName": "NFT_MarketPlace",
  "abi": [
    {
      "anonymous": false,
      "inputs": [
        {
          "indexed": false,
          "internalType": "uint256",
          "name": "tokenID",
          "type": "uint256"
        },
        {
          "indexed": false,
          "internalType": "address",
          "name": "from",
          "type": "address"
        },
        {
          "indexed": false,
          "internalType": "address",
          "name": "to",
          "type": "address"
        },
        {
          "indexed": false,
          "internalType": "string",
          "name": "tokenURI",
          "type": "string"
        },
        {
          "indexed": false,
          "internalType": "uint256",
          "name": "price",
          "type": "uint256"
        }
      ],
      "name": "NFTTransfer",
      "type": "event"
    },
    {
      "anonymous": false,
      "inputs": [
        {
          "indexed": true,
          "internalType": "address",
          "name": "previousOwner",
          "type": "address"
        },
        {
          "indexed": true,
          "internalType": "address",
          "name": "newOwner",
          "type": "address"
        }
      ],
      "name": "OwnershipTransferred",
      "type": "event"
    },
    {
      "inputs": [],
      "name": "owner",
      "outputs": [
        {
          "internalType": "address",
          "name": "",
          "type": "address"
        }
      ],
      "stateMutability": "view",
      "type": "function",
      "constant": true
    },
    {
      "inputs": [],
      "name": "renounceOwnership",
      "outputs": [],
      "stateMutability": "nonpayable",
      "type": "function"
    },
    {
      "inputs": [
        {
          "internalType": "address",
          "name": "newOwner",
          "type": "address"
        }
      ],
      "name": "transferOwnership",
      "outputs": [],
      "stateMutability": "nonpayable",
      "type": "function"
    },
    {
      "inputs": [
        {
          "internalType": "uint256",
          "name": "tokenID",
          "type": "uint256"
        },
        {
          "internalType": "uint256",
          "name": "price",
          "type": "uint256"
        }
      ],
      "name": "listNFT",
      "outputs": [],
      "stateMutability": "nonpayable",
      "type": "function"
    },
    {
      "inputs": [
        {
          "internalType": "uint256",
          "name": "tokenID",
          "type": "uint256"
        }
      ],
      "name": "buyNFT",
      "outputs": [],
      "stateMutability": "payable",
      "type": "function",
      "payable": true
    },
    {
      "inputs": [
        {
          "internalType": "uint256",
          "name": "tokenID",
          "type": "uint256"
        }
      ],
      "name": "cancelListing",
      "outputs": [],
      "stateMutability": "nonpayable",
      "type": "function"
    },
    {
      "inputs": [],
      "name": "withdrawFunds",
      "outputs": [],
      "stateMutability": "nonpayable",
      "type": "function"
    }
  ],
  "bytecode": "0x608060405234801561001057600080fd5b5061002d61002261003260201b60201c565b61003a60201b60201c565b6100fe565b600033905090565b60008060009054906101000a900473ffffffffffffffffffffffffffffffffffffffff169050816000806101000a81548173ffffffffffffffffffffffffffffffffffffffff021916908373ffffffffffffffffffffffffffffffffffffffff1602179055508173ffffffffffffffffffffffffffffffffffffffff168173ffffffffffffffffffffffffffffffffffffffff167f8be0079c531659141344cd1fd0a4f28419497f9722a3daafe3b4186f6b6457e060405160405180910390a35050565b6111828061010d6000396000f3fe6080604052600436106100705760003560e01c8063715018a61161004e578063715018a6146100d15780638da5cb5b146100e857806394383f1414610113578063f2fde38b1461013c57610070565b806324600fc314610075578063305a67a81461008c57806351ed8288146100b5575b600080fd5b34801561008157600080fd5b5061008a610165565b005b34801561009857600080fd5b506100b360048036038101906100ae9190610ab6565b6101ff565b005b6100cf60048036038101906100ca9190610ab6565b6103f4565b005b3480156100dd57600080fd5b506100e6610632565b005b3480156100f457600080fd5b506100fd610646565b60405161010a9190610c60565b60405180910390f35b34801561011f57600080fd5b5061013a60048036038101906101359190610adf565b61066f565b005b34801561014857600080fd5b50610163600480360381019061015e9190610a8d565b6107f4565b005b61016d610878565b6000479050600081116101b5576040517f08c379a00000000000000000000000000000000000000000000000000000000081526004016101ac90610d12565b60405180910390fd5b3373ffffffffffffffffffffffffffffffffffffffff166108fc829081150290604051600060405180830381858888f193505050501580156101fb573d6000803e3d6000fd5b5050565b600060016000838152602001908152602001600020604051806040016040529081600082015481526020016001820160009054906101000a900473ffffffffffffffffffffffffffffffffffffffff1673ffffffffffffffffffffffffffffffffffffffff1673ffffffffffffffffffffffffffffffffffffffff1681525050905060008160000151116102c8576040517f08c379a00000000000000000000000000000000000000000000000000000000081526004016102bf90610cf2565b60405180910390fd5b3373ffffffffffffffffffffffffffffffffffffffff16816020015173ffffffffffffffffffffffffffffffffffffffff161461033a576040517f08c379a000000000000000000000000000000000000000000000000000000000815260040161033190610d52565b60405180910390fd5b3073ffffffffffffffffffffffffffffffffffffffff166323b872dd3033856040518463ffffffff1660e01b815260040161037793929190610c7b565b600060405180830381600087803b15801561039157600080fd5b505af11580156103a5573d6000803e3d6000fd5b505050506103b2826108f6565b7f705332a8918666802fc1504f63ff1f002a5f6cedd30d59ad7ae0b5281aeb8dca82303360006040516103e89493929190610d92565b60405180910390a15050565b600060016000838152602001908152602001600020604051806040016040529081600082015481526020016001820160009054906101000a900473ffffffffffffffffffffffffffffffffffffffff1673ffffffffffffffffffffffffffffffffffffffff1673ffffffffffffffffffffffffffffffffffffffff1681525050905060008160000151116104bd576040517f08c379a00000000000000000000000000000000000000000000000000000000081526004016104b490610cf2565b60405180910390fd5b80600001513414610503576040517f08c379a00000000000000000000000000000000000000000000000000000000081526004016104fa90610d72565b60405180910390fd5b3073ffffffffffffffffffffffffffffffffffffffff166323b872dd3033856040518463ffffffff1660e01b815260040161054093929190610c7b565b600060405180830381600087803b15801561055a57600080fd5b505af115801561056e573d6000803e3d6000fd5b5050505061057b826108f6565b806020015173ffffffffffffffffffffffffffffffffffffffff166108fc6105c460646105b6605f866000015161096b90919063ffffffff16565b61098190919063ffffffff16565b9081150290604051600060405180830381858888f193505050501580156105ef573d6000803e3d6000fd5b507f705332a8918666802fc1504f63ff1f002a5f6cedd30d59ad7ae0b5281aeb8dca82303360006040516106269493929190610d92565b60405180910390a15050565b61063a610878565b6106446000610997565b565b60008060009054906101000a900473ffffffffffffffffffffffffffffffffffffffff16905090565b600081116106b2576040517f08c379a00000000000000000000000000000000000000000000000000000000081526004016106a990610cb2565b60405180910390fd5b3073ffffffffffffffffffffffffffffffffffffffff166323b872dd3330856040518463ffffffff1660e01b81526004016106ef93929190610c7b565b600060405180830381600087803b15801561070957600080fd5b505af115801561071d573d6000803e3d6000fd5b5050505060405180604001604052808281526020013373ffffffffffffffffffffffffffffffffffffffff16815250600160008481526020019081526020016000206000820151816000015560208201518160010160006101000a81548173ffffffffffffffffffffffffffffffffffffffff021916908373ffffffffffffffffffffffffffffffffffffffff1602179055509050507f705332a8918666802fc1504f63ff1f002a5f6cedd30d59ad7ae0b5281aeb8dca823330846040516107e89493929190610dea565b60405180910390a15050565b6107fc610878565b600073ffffffffffffffffffffffffffffffffffffffff168173ffffffffffffffffffffffffffffffffffffffff16141561086c576040517f08c379a000000000000000000000000000000000000000000000000000000000815260040161086390610cd2565b60405180910390fd5b61087581610997565b50565b610880610a5b565b73ffffffffffffffffffffffffffffffffffffffff1661089e610646565b73ffffffffffffffffffffffffffffffffffffffff16146108f4576040517f08c379a00000000000000000000000000000000000000000000000000000000081526004016108eb90610d32565b60405180910390fd5b565b6000600160008381526020019081526020016000206000018190555060006001600083815260200190815260200160002060010160006101000a81548173ffffffffffffffffffffffffffffffffffffffff021916908373ffffffffffffffffffffffffffffffffffffffff16021790555050565b600081836109799190610e84565b905092915050565b6000818361098f9190610e53565b905092915050565b60008060009054906101000a900473ffffffffffffffffffffffffffffffffffffffff169050816000806101000a81548173ffffffffffffffffffffffffffffffffffffffff021916908373ffffffffffffffffffffffffffffffffffffffff1602179055508173ffffffffffffffffffffffffffffffffffffffff168173ffffffffffffffffffffffffffffffffffffffff167f8be0079c531659141344cd1fd0a4f28419497f9722a3daafe3b4186f6b6457e060405160405180910390a35050565b600033905090565b600081359050610a728161111e565b92915050565b600081359050610a8781611135565b92915050565b600060208284031215610a9f57600080fd5b6000610aad84828501610a63565b91505092915050565b600060208284031215610ac857600080fd5b6000610ad684828501610a78565b91505092915050565b60008060408385031215610af257600080fd5b6000610b0085828601610a78565b9250506020610b1185828601610a78565b9150509250929050565b610b2481610ede565b82525050565b610b3381610f1a565b82525050565b6000610b46602783610e42565b9150610b5182610f8a565b604082019050919050565b6000610b69602683610e42565b9150610b7482610fd9565b604082019050919050565b6000610b8c602283610e42565b9150610b9782611028565b604082019050919050565b6000610baf601a83610e42565b9150610bba82611077565b602082019050919050565b6000610bd2602083610e42565b9150610bdd826110a0565b602082019050919050565b6000610bf5602083610e42565b9150610c00826110c9565b602082019050919050565b6000610c18600083610e42565b9150610c23826110f2565b600082019050919050565b6000610c3b601a83610e42565b9150610c46826110f5565b602082019050919050565b610c5a81610f10565b82525050565b6000602082019050610c756000830184610b1b565b92915050565b6000606082019050610c906000830186610b1b565b610c9d6020830185610b1b565b610caa6040830184610c51565b949350505050565b60006020820190508181036000830152610ccb81610b39565b9050919050565b60006020820190508181036000830152610ceb81610b5c565b9050919050565b60006020820190508181036000830152610d0b81610b7f565b9050919050565b60006020820190508181036000830152610d2b81610ba2565b9050919050565b60006020820190508181036000830152610d4b81610bc5565b9050919050565b60006020820190508181036000830152610d6b81610be8565b9050919050565b60006020820190508181036000830152610d8b81610c2e565b9050919050565b600060a082019050610da76000830187610c51565b610db46020830186610b1b565b610dc16040830185610b1b565b8181036060830152610dd281610c0b565b9050610de16080830184610b2a565b95945050505050565b600060a082019050610dff6000830187610c51565b610e0c6020830186610b1b565b610e196040830185610b1b565b8181036060830152610e2a81610c0b565b9050610e396080830184610c51565b95945050505050565b600082825260208201905092915050565b6000610e5e82610f10565b9150610e6983610f10565b925082610e7957610e78610f5b565b5b828204905092915050565b6000610e8f82610f10565b9150610e9a83610f10565b9250817fffffffffffffffffffffffffffffffffffffffffffffffffffffffffffffffff0483118215151615610ed357610ed2610f2c565b5b828202905092915050565b6000610ee982610ef0565b9050919050565b600073ffffffffffffffffffffffffffffffffffffffff82169050919050565b6000819050919050565b6000610f2582610f10565b9050919050565b7f4e487b7100000000000000000000000000000000000000000000000000000000600052601160045260246000fd5b7f4e487b7100000000000000000000000000000000000000000000000000000000600052601260045260246000fd5b7f4e46544d61726b65743a207072696365206d757374206265206772656174657260008201527f207468616e203000000000000000000000000000000000000000000000000000602082015250565b7f4f776e61626c653a206e6577206f776e657220697320746865207a65726f206160008201527f6464726573730000000000000000000000000000000000000000000000000000602082015250565b7f4e46544d61726b65743a206e6674206e6f74206c697374656420666f7220736160008201527f6c65000000000000000000000000000000000000000000000000000000000000602082015250565b7f4e46544d61726b65743a2062616c616e6365206973207a65726f000000000000600082015250565b7f4f776e61626c653a2063616c6c6572206973206e6f7420746865206f776e6572600082015250565b7f4e46544d61726b65743a20796f75277265206e6f74207468652073656c6c6572600082015250565b50565b7f4e46544d61726b65743a20696e636f7272656374207072696365000000000000600082015250565b61112781610ede565b811461113257600080fd5b50565b61113e81610f10565b811461114957600080fd5b5056fea26469706673582212202b718b2e20d04a62d9bee2092213b9d163eea73be64e139aab4966e76e4c176664736f6c63430008010033",
  "immutableReferences": {},
  "source": "// SPDX-License-Identifier: MIT\npragma solidity ^0.8.0;\n\nimport \"@openzeppelin/contracts/token/ERC721/extensions/ERC721URIStorage.sol\";\nimport \"@openzeppelin/contracts/utils/math/SafeMath.sol\";\nimport \"@openzeppelin/contracts/access/Ownable.sol\";\n\nstruct NFTListing {\n    uint256 price;\n    address seller;\n}\n\ncontract NFT_MarketPlace is Ownable {\n    using SafeMath for uint256;\n\n    mapping(uint256 => NFTListing) private _listings;\n\n    event NFTTransfer(\n        uint256 tokenID,\n        address from,\n        address to,\n        string tokenURI,\n        uint256 price\n    );\n\n    function listNFT(uint256 tokenID, uint256 price) public {\n        require(price > 0, \"NFTMarket: price must be greater than 0\");\n        ERC721(address(this)).transferFrom(msg.sender, address(this), tokenID);\n        _listings[tokenID] = NFTListing(price, msg.sender);\n        emit NFTTransfer(tokenID, msg.sender, address(this), \"\", price);\n    }\n\n    function buyNFT(uint256 tokenID) public payable {\n        NFTListing memory listing = _listings[tokenID];\n        require(listing.price > 0, \"NFTMarket: nft not listed for sale\");\n        require(msg.value == listing.price, \"NFTMarket: incorrect price\");\n        ERC721(address(this)).transferFrom(address(this), msg.sender, tokenID);\n        clearListing(tokenID);\n        payable(listing.seller).transfer(listing.price.mul(95).div(100));\n        emit NFTTransfer(tokenID, address(this), msg.sender, \"\", 0);\n    }\n\n    function cancelListing(uint256 tokenID) public {\n        NFTListing memory listing = _listings[tokenID];\n        require(listing.price > 0, \"NFTMarket: nft not listed for sale\");\n        require(\n            listing.seller == msg.sender,\n            \"NFTMarket: you're not the seller\"\n        );\n        ERC721(address(this)).transferFrom(address(this), msg.sender, tokenID);\n        clearListing(tokenID);\n        emit NFTTransfer(tokenID, address(this), msg.sender, \"\", 0);\n    }\n\n    function withdrawFunds() public onlyOwner {\n        uint256 balance = address(this).balance;\n        require(balance > 0, \"NFTMarket: balance is zero\");\n        payable(msg.sender).transfer(balance);\n    }\n\n    function clearListing(uint256 tokenID) private {\n        _listings[tokenID].price = 0;\n        _listings[tokenID].seller = address(0);\n    }\n}\n",
  "sourcePath": "/home/abir/Documents/TDoC/TDOC-blockchain/contracts/NFT_MarketPlace.sol",
  "compiler": {
    "name": "solc",
    "version": "0.8.1+commit.df193b15.Emscripten.clang"
  },
  "schemaVersion": "3.4.16",
  "updatedAt": "2024-12-08T14:42:59.688Z",
  "networkType": "ethereum",
  "devdoc": {
    "kind": "dev",
    "methods": {
      "owner()": {
        "details": "Returns the address of the current owner."
      },
      "renounceOwnership()": {
        "details": "Leaves the contract without owner. It will not be possible to call `onlyOwner` functions. Can only be called by the current owner. NOTE: Renouncing ownership will leave the contract without an owner, thereby disabling any functionality that is only available to the owner."
      },
      "transferOwnership(address)": {
        "details": "Transfers ownership of the contract to a new account (`newOwner`). Can only be called by the current owner."
      }
    },
    "version": 1
  },
  "userdoc": {
    "kind": "user",
    "methods": {},
    "version": 1
  }
}