{
  "contractName": "SpaceWars",
  "abi": [
    {
      "inputs": [
        {
          "internalType": "string",
          "name": "name",
          "type": "string"
        }
      ],
      "name": "registerPlayer",
      "outputs": [],
      "stateMutability": "nonpayable",
      "type": "function"
    },
    {
      "inputs": [
        {
          "internalType": "address",
          "name": "player",
          "type": "address"
        }
      ],
      "name": "isPlayerRegistered",
      "outputs": [
        {
          "internalType": "bool",
          "name": "",
          "type": "bool"
        }
      ],
      "stateMutability": "view",
      "type": "function",
      "constant": true
    },
    {
      "inputs": [],
      "name": "getPlayerName",
      "outputs": [
        {
          "internalType": "string",
          "name": "",
          "type": "string"
        }
      ],
      "stateMutability": "view",
      "type": "function",
      "constant": true
    }
  ],
  "bytecode": "0x608060405234801561001057600080fd5b50610712806100206000396000f3fe608060405234801561001057600080fd5b50600436106100415760003560e01c80631417b82a14610046578063a69c659714610076578063b3446f8514610094575b600080fd5b610060600480360381019061005b91906103fb565b6100b0565b60405161006d91906104f7565b60405180910390f35b61007e610106565b60405161008b9190610512565b60405180910390f35b6100ae60048036038101906100a99190610424565b610261565b005b6000806000808473ffffffffffffffffffffffffffffffffffffffff1673ffffffffffffffffffffffffffffffffffffffff16815260200190815260200160002080546100fc90610601565b9050119050919050565b606060008060003373ffffffffffffffffffffffffffffffffffffffff1673ffffffffffffffffffffffffffffffffffffffff168152602001908152602001600020805461015390610601565b905011610195576040517f08c379a000000000000000000000000000000000000000000000000000000000815260040161018c90610554565b60405180910390fd5b6000803373ffffffffffffffffffffffffffffffffffffffff1673ffffffffffffffffffffffffffffffffffffffff16815260200190815260200160002080546101de90610601565b80601f016020809104026020016040519081016040528092919081815260200182805461020a90610601565b80156102575780601f1061022c57610100808354040283529160200191610257565b820191906000526020600020905b81548152906001019060200180831161023a57829003601f168201915b5050505050905090565b600082829050116102a7576040517f08c379a000000000000000000000000000000000000000000000000000000000815260040161029e90610534565b60405180910390fd5b81816000803373ffffffffffffffffffffffffffffffffffffffff1673ffffffffffffffffffffffffffffffffffffffff16815260200190815260200160002091906102f49291906102f9565b505050565b82805461030590610601565b90600052602060002090601f016020900481019282610327576000855561036e565b82601f1061034057803560ff191683800117855561036e565b8280016001018555821561036e579182015b8281111561036d578235825591602001919060010190610352565b5b50905061037b919061037f565b5090565b5b80821115610398576000816000905550600101610380565b5090565b6000813590506103ab816106c5565b92915050565b60008083601f8401126103c357600080fd5b8235905067ffffffffffffffff8111156103dc57600080fd5b6020830191508360018202830111156103f457600080fd5b9250929050565b60006020828403121561040d57600080fd5b600061041b8482850161039c565b91505092915050565b6000806020838503121561043757600080fd5b600083013567ffffffffffffffff81111561045157600080fd5b61045d858286016103b1565b92509250509250929050565b610472816105a2565b82525050565b600061048382610574565b61048d818561057f565b935061049d8185602086016105ce565b6104a681610662565b840191505092915050565b60006104be60148361057f565b91506104c982610673565b602082019050919050565b60006104e160158361057f565b91506104ec8261069c565b602082019050919050565b600060208201905061050c6000830184610469565b92915050565b6000602082019050818103600083015261052c8184610478565b905092915050565b6000602082019050818103600083015261054d816104b1565b9050919050565b6000602082019050818103600083015261056d816104d4565b9050919050565b600081519050919050565b600082825260208201905092915050565b600061059b826105ae565b9050919050565b60008115159050919050565b600073ffffffffffffffffffffffffffffffffffffffff82169050919050565b60005b838110156105ec5780820151818401526020810190506105d1565b838111156105fb576000848401525b50505050565b6000600282049050600182168061061957607f821691505b6020821081141561062d5761062c610633565b5b50919050565b7f4e487b7100000000000000000000000000000000000000000000000000000000600052602260045260246000fd5b6000601f19601f8301169050919050565b7f4e616d652063616e6e6f7420626520656d707479000000000000000000000000600082015250565b7f506c61796572206e6f7420726567697374657265640000000000000000000000600082015250565b6106ce81610590565b81146106d957600080fd5b5056fea26469706673582212200423f16af307bb06c3655c04374562d025fddfd47e106b50ec6d5b47940c7a0e64736f6c63430008040033",
  "immutableReferences": {},
  "source": "// SPDX-License-Identifier: MIT\n\npragma solidity ^0.8.0;\n\ncontract SpaceWars {\n    mapping(address => string) playerName;\n\n    function registerPlayer(string calldata name) public {\n        require(bytes(name).length > 0, \"Name cannot be empty\");\n        playerName[msg.sender] = name;\n    }\n\n    function isPlayerRegistered(address player) public view returns (bool) {\n        return bytes(playerName[player]).length > 0;\n    }\n\n    function getPlayerName() public view returns(string memory) {\n        require(bytes(playerName[msg.sender]).length > 0, \"Player not registered\");\n        return playerName[msg.sender];\n    }\n}\n",
  "sourcePath": "/home/abir/Documents/TDoC/TDOC-blockchain/contracts/SpaceWars.sol",
  "compiler": {
    "name": "solc",
    "version": "0.8.4+commit.c7e474f2.Emscripten.clang"
  },
  "schemaVersion": "3.4.16",
  "updatedAt": "2024-12-12T10:43:01.717Z",
  "networkType": "ethereum",
  "devdoc": {
    "kind": "dev",
    "methods": {},
    "version": 1
  },
  "userdoc": {
    "kind": "user",
    "methods": {},
    "version": 1
  }
}