{
  "contractName": "SpaceWars",
  "abi": [
    {
      "anonymous": false,
      "inputs": [
        {
          "indexed": true,
          "internalType": "address",
          "name": "owner",
          "type": "address"
        },
        {
          "indexed": false,
          "internalType": "string",
          "name": "name",
          "type": "string"
        }
      ],
      "name": "NewPlayer",
      "type": "event"
    },
    {
      "inputs": [
        {
          "internalType": "address",
          "name": "",
          "type": "address"
        }
      ],
      "name": "playerInfo",
      "outputs": [
        {
          "internalType": "uint256",
          "name": "",
          "type": "uint256"
        }
      ],
      "stateMutability": "view",
      "type": "function"
    },
    {
      "inputs": [
        {
          "internalType": "address",
          "name": "",
          "type": "address"
        }
      ],
      "name": "playerTokenInfo",
      "outputs": [
        {
          "internalType": "uint256",
          "name": "id",
          "type": "uint256"
        }
      ],
      "stateMutability": "view",
      "type": "function"
    },
    {
      "inputs": [
        {
          "internalType": "uint256",
          "name": "",
          "type": "uint256"
        }
      ],
      "name": "players",
      "outputs": [
        {
          "internalType": "address",
          "name": "playerAddress",
          "type": "address"
        },
        {
          "internalType": "string",
          "name": "playerName",
          "type": "string"
        }
      ],
      "stateMutability": "view",
      "type": "function"
    },
    {
      "inputs": [
        {
          "internalType": "address",
          "name": "addr",
          "type": "address"
        }
      ],
      "name": "isPlayer",
      "outputs": [
        {
          "internalType": "bool",
          "name": "",
          "type": "bool"
        }
      ],
      "stateMutability": "view",
      "type": "function"
    },
    {
      "inputs": [
        {
          "internalType": "address",
          "name": "addr",
          "type": "address"
        }
      ],
      "name": "getPlayer",
      "outputs": [
        {
          "components": [
            {
              "internalType": "address",
              "name": "playerAddress",
              "type": "address"
            },
            {
              "internalType": "string",
              "name": "playerName",
              "type": "string"
            }
          ],
          "internalType": "struct SpaceWars.Player",
          "name": "",
          "type": "tuple"
        }
      ],
      "stateMutability": "view",
      "type": "function"
    },
    {
      "inputs": [
        {
          "internalType": "string",
          "name": "_name",
          "type": "string"
        },
        {
          "internalType": "string",
          "name": "_gameTokenName",
          "type": "string"
        }
      ],
      "name": "registerPlayer",
      "outputs": [],
      "stateMutability": "nonpayable",
      "type": "function"
    },
    {
      "inputs": [
        {
          "internalType": "string",
          "name": "_name",
          "type": "string"
        }
      ],
      "name": "createRandomGameToken",
      "outputs": [],
      "stateMutability": "nonpayable",
      "type": "function"
    }
  ],
  "bytecode": "0x608060405234801561001057600080fd5b50611163806100206000396000f3fe608060405234801561001057600080fd5b506004361061007d5760003560e01c80635c12cd4b1161005b5780635c12cd4b14610112578063845f433b146101425780639ec40aa31461015e578063f71d96cb1461017a5761007d565b806309c95e10146100825780632711162e146100b25780634b114691146100e2575b600080fd5b61009c600480360381019061009791906109db565b6101ab565b6040516100a99190610cb8565b60405180910390f35b6100cc60048036038101906100c791906109db565b6102a9565b6040516100d99190610d77565b60405180910390f35b6100fc60048036038101906100f791906109db565b6102c7565b6040516101099190610d77565b60405180910390f35b61012c600480360381019061012791906109db565b6102df565b6040516101399190610d55565b60405180910390f35b61015c60048036038101906101579190610a45565b6104af565b005b61017860048036038101906101739190610a04565b61065d565b005b610194600480360381019061018f9190610ab1565b6106b2565b6040516101a2929190610c88565b60405180910390f35b6000806000808473ffffffffffffffffffffffffffffffffffffffff1673ffffffffffffffffffffffffffffffffffffffff168152602001908152602001600020541415806102a2575060006002805490501180156102a157508173ffffffffffffffffffffffffffffffffffffffff166002600081548110610257577f4e487b7100000000000000000000000000000000000000000000000000000000600052603260045260246000fd5b906000526020600020906002020160000160009054906101000a900473ffffffffffffffffffffffffffffffffffffffff1673ffffffffffffffffffffffffffffffffffffffff16145b5b9050919050565b60016020528060005260406000206000915090508060000154905081565b60006020528060005260406000206000915090505481565b6102e7610863565b6102f0826101ab565b61032f576040517f08c379a000000000000000000000000000000000000000000000000000000000815260040161032690610d35565b60405180910390fd5b60026000808473ffffffffffffffffffffffffffffffffffffffff1673ffffffffffffffffffffffffffffffffffffffff16815260200190815260200160002054815481106103a7577f4e487b7100000000000000000000000000000000000000000000000000000000600052603260045260246000fd5b90600052602060002090600202016040518060400160405290816000820160009054906101000a900473ffffffffffffffffffffffffffffffffffffffff1673ffffffffffffffffffffffffffffffffffffffff1673ffffffffffffffffffffffffffffffffffffffff16815260200160018201805461042690610e9f565b80601f016020809104026020016040519081016040528092919081815260200182805461045290610e9f565b801561049f5780601f106104745761010080835404028352916020019161049f565b820191906000526020600020905b81548152906001019060200180831161048257829003601f168201915b5050505050815250509050919050565b6104b8336101ab565b156104f8576040517f08c379a00000000000000000000000000000000000000000000000000000000081526004016104ef90610cf5565b60405180910390fd5b60006002805490509050600260405180604001604052803373ffffffffffffffffffffffffffffffffffffffff16815260200185815250908060018154018082558091505060019003906000526020600020906002020160009091909190915060008201518160000160006101000a81548173ffffffffffffffffffffffffffffffffffffffff021916908373ffffffffffffffffffffffffffffffffffffffff16021790555060208201518160010190805190602001906105bb929190610893565b505050806000803373ffffffffffffffffffffffffffffffffffffffff1673ffffffffffffffffffffffffffffffffffffffff1681526020019081526020016000208190555061060a8261065d565b3373ffffffffffffffffffffffffffffffffffffffff167f81ef79d1cda814a60c0fc60792e648a06d9c6bae67176346d1cc8b63030bfccd846040516106509190610cd3565b60405180910390a2505050565b610666336101ab565b6106a5576040517f08c379a000000000000000000000000000000000000000000000000000000000815260040161069c90610d15565b60405180910390fd5b6106ae8161078e565b5050565b600281815481106106c257600080fd5b90600052602060002090600202016000915090508060000160009054906101000a900473ffffffffffffffffffffffffffffffffffffffff169080600101805461070b90610e9f565b80601f016020809104026020016040519081016040528092919081815260200182805461073790610e9f565b80156107845780601f1061075957610100808354040283529160200191610784565b820191906000526020600020905b81548152906001019060200180831161076757829003601f168201915b5050505050905082565b610796610919565b6000606442336040516020016107ad929190610c5c565b6040516020818303038152906040528051906020012060001c6107d09190610f79565b90506006816107df9190610f79565b905060008114156107f95780806107f590610f02565b9150505b6000604051806020016040528083815250905080600160003373ffffffffffffffffffffffffffffffffffffffff1673ffffffffffffffffffffffffffffffffffffffff168152602001908152602001600020600082015181600001559050508092505050919050565b6040518060400160405280600073ffffffffffffffffffffffffffffffffffffffff168152602001606081525090565b82805461089f90610e9f565b90600052602060002090601f0160209004810192826108c15760008555610908565b82601f106108da57805160ff1916838001178555610908565b82800160010185558215610908579182015b828111156109075782518255916020019190600101906108ec565b5b509050610915919061092c565b5090565b6040518060200160405280600081525090565b5b8082111561094557600081600090555060010161092d565b5090565b600061095c61095784610db7565b610d92565b90508281526020810184848401111561097457600080fd5b61097f848285610e5d565b509392505050565b600081359050610996816110ff565b92915050565b600082601f8301126109ad57600080fd5b81356109bd848260208601610949565b91505092915050565b6000813590506109d581611116565b92915050565b6000602082840312156109ed57600080fd5b60006109fb84828501610987565b91505092915050565b600060208284031215610a1657600080fd5b600082013567ffffffffffffffff811115610a3057600080fd5b610a3c8482850161099c565b91505092915050565b60008060408385031215610a5857600080fd5b600083013567ffffffffffffffff811115610a7257600080fd5b610a7e8582860161099c565b925050602083013567ffffffffffffffff811115610a9b57600080fd5b610aa78582860161099c565b9150509250929050565b600060208284031215610ac357600080fd5b6000610ad1848285016109c6565b91505092915050565b610ae381610e15565b82525050565b610af281610e15565b82525050565b610b09610b0482610e15565b610f4b565b82525050565b610b1881610e27565b82525050565b6000610b2982610de8565b610b338185610df3565b9350610b43818560208601610e6c565b610b4c81611066565b840191505092915050565b6000610b6282610de8565b610b6c8185610e04565b9350610b7c818560208601610e6c565b610b8581611066565b840191505092915050565b6000610b9d601983610e04565b9150610ba882611084565b602082019050919050565b6000610bc0601c83610e04565b9150610bcb826110ad565b602082019050919050565b6000610be3601583610e04565b9150610bee826110d6565b602082019050919050565b6000604083016000830151610c116000860182610ada565b5060208301518482036020860152610c298282610b1e565b9150508091505092915050565b610c3f81610e53565b82525050565b610c56610c5182610e53565b610f6f565b82525050565b6000610c688285610c45565b602082019150610c788284610af8565b6014820191508190509392505050565b6000604082019050610c9d6000830185610ae9565b8181036020830152610caf8184610b57565b90509392505050565b6000602082019050610ccd6000830184610b0f565b92915050565b60006020820190508181036000830152610ced8184610b57565b905092915050565b60006020820190508181036000830152610d0e81610b90565b9050919050565b60006020820190508181036000830152610d2e81610bb3565b9050919050565b60006020820190508181036000830152610d4e81610bd6565b9050919050565b60006020820190508181036000830152610d6f8184610bf9565b905092915050565b6000602082019050610d8c6000830184610c36565b92915050565b6000610d9c610dad565b9050610da88282610ed1565b919050565b6000604051905090565b600067ffffffffffffffff821115610dd257610dd1611037565b5b610ddb82611066565b9050602081019050919050565b600081519050919050565b600082825260208201905092915050565b600082825260208201905092915050565b6000610e2082610e33565b9050919050565b60008115159050919050565b600073ffffffffffffffffffffffffffffffffffffffff82169050919050565b6000819050919050565b82818337600083830152505050565b60005b83811015610e8a578082015181840152602081019050610e6f565b83811115610e99576000848401525b50505050565b60006002820490506001821680610eb757607f821691505b60208210811415610ecb57610eca611008565b5b50919050565b610eda82611066565b810181811067ffffffffffffffff82111715610ef957610ef8611037565b5b80604052505050565b6000610f0d82610e53565b91507fffffffffffffffffffffffffffffffffffffffffffffffffffffffffffffffff821415610f4057610f3f610faa565b5b600182019050919050565b6000610f5682610f5d565b9050919050565b6000610f6882611077565b9050919050565b6000819050919050565b6000610f8482610e53565b9150610f8f83610e53565b925082610f9f57610f9e610fd9565b5b828206905092915050565b7f4e487b7100000000000000000000000000000000000000000000000000000000600052601160045260246000fd5b7f4e487b7100000000000000000000000000000000000000000000000000000000600052601260045260246000fd5b7f4e487b7100000000000000000000000000000000000000000000000000000000600052602260045260246000fd5b7f4e487b7100000000000000000000000000000000000000000000000000000000600052604160045260246000fd5b6000601f19601f8301169050919050565b60008160601b9050919050565b7f506c6179657220616c7265616479207265676973746572656400000000000000600082015250565b7f506c6561736520726567697374657220706c6179657220666972737400000000600082015250565b7f506c6179657220646f65736e2774206578697374210000000000000000000000600082015250565b61110881610e15565b811461111357600080fd5b50565b61111f81610e53565b811461112a57600080fd5b5056fea264697066735822122057087f1c6af2ad644a172fd0b20ab171bdcaf16274d7ae64795bd01d327c828d64736f6c63430008010033",
  "immutableReferences": {},
  "source": "// SPDX-License-Identifier: MIT\n\npragma solidity ^0.8.0;\n\ncontract SpaceWars {\n\n    struct GameToken {\n        uint256 id;\n    }\n\n    struct Player {\n        address playerAddress;\n        string playerName;\n    }\n\n    event NewPlayer(address indexed owner, string name);\n\n    mapping(address => uint256) public playerInfo; \n    mapping(address => GameToken) public playerTokenInfo; \n\n    Player[] public players;\n\n    function isPlayer(address addr) public view returns (bool) {\n        return playerInfo[addr] != 0 || (players.length > 0 && players[0].playerAddress == addr);\n    }\n\n    function getPlayer(address addr) public view returns (Player memory) {\n        require(isPlayer(addr), \"Player doesn't exist!\");\n        return players[playerInfo[addr]];\n    }\n\n    function _createRandomNum(uint256 _mod, address _sender) internal view returns (uint256) {\n        return uint256(keccak256(abi.encodePacked(block.timestamp, _sender))) % _mod;\n    }\n\n    function _createGameToken(string memory _name) internal returns (GameToken memory) {\n        \n        uint256 randId = uint256(keccak256(abi.encodePacked(block.timestamp, msg.sender))) % 100;\n        randId = randId % 6;\n        if (randId == 0) {\n            randId++;\n        }\n\n        GameToken memory newGameToken = GameToken(randId);\n        playerTokenInfo[msg.sender] = newGameToken; \n\n        return newGameToken;\n    }\n\n    function registerPlayer(string memory _name, string memory _gameTokenName) external {\n        require(!isPlayer(msg.sender), \"Player already registered\"); \n\n        uint256 _id = players.length;\n        players.push(Player(msg.sender, _name)); \n        playerInfo[msg.sender] = _id; \n\n        createRandomGameToken(_gameTokenName);\n\n        emit NewPlayer(msg.sender, _name); \n    }\n\n    function createRandomGameToken(string memory _name) public {\n        require(isPlayer(msg.sender), \"Please register player first\"); \n        _createGameToken(_name);\n    }\n}",
  "sourcePath": "/home/abir/Documents/TDoC/TDOC-blockchain/contracts/SpaceWars.sol",
  "compiler": {
    "name": "solc",
    "version": "0.8.1+commit.df193b15.Emscripten.clang"
  },
  "schemaVersion": "3.4.16",
  "updatedAt": "2024-12-07T16:14:33.526Z",
  "devdoc": {
    "kind": "dev",
    "methods": {},
    "version": 1
  },
  "userdoc": {
    "kind": "user",
    "methods": {},
    "version": 1
  }
}